:020000040800F2
:10000000204900206D3B0008553A0008573A000887
:10001000593A00085B3A00085D3A00080000000009
:100020000000000000000000000000005F3A00082F
:10003000613A000800000000633A0008653A0008D1
:10004000973B00089B3B00089F3B0008A33B000830
:10005000A73B0008AB3B0008AF3B0008B33B0008E0
:10006000B73B0008BB3B0008BF3B0008C33B000890
:10007000C73B0008CB3B0008CF3B0008D33B000840
:10008000D73B0008DB3B0008DF3B0008E33B0008F0
:10009000E73B0008EB3B0008EF3B0008F33B0008A0
:1000A000F73B0008FB3B0008FF3B0008033C00084F
:1000B000673A0008073C00080B3C00080F3C0008AA
:1000C000133C0008173C00081B3C00081F3C0008BC
:1000D000233C0008273C00082B3C00082F3C00086C
:1000E000333C0008373C00083B3C00083F3C00081C
:1000F000433C0008473C00084B3C00084F3C0008CC
:10010000533C0008573C00085B3C00085F3C00087B
:10011000633C0008673C00086D3A0008733A000829
:100120006B3C00086F3C0008733C0008773C0008FB
:100130007B3C00087F3C0008833C0008873C0008AB
:100140008B3C00088F3C0008933C0008973C00085B
:100150009B3C00089F3C0008A33C0008A73C00080B
:10016000AB3C0008AF3C0008B33C0008B73C0008BB
:10017000BB3C0008BF3C0008C33C00080000000076
:10018000C73C0008CB3C0008CF3C0008D33C00082B
:10019000D73C0008DB3C0008DF3C0008E33C0008DB
:1001A000E73C0008EB3C0008EF3C00082DE9F04F6D
:1001B0000FF2A41CA1B0DCE90089CDE900892A9DD9
:1001C000DFF8DC9B049100248DF843500D944FF030
:1001D000FF38824616461F460FE0B3462C461BF8F2
:1001E000011B0498D0470028049000F0A2800D98CD
:1001F000401C641E0D90F2D176193078252808D164
:10020000002100220791089209910A920B910C9209
:100210000DE06A464146304600F0DAFF050001D1A4
:100220000D98A1E0D9D50125E6E741F0010116F8C6
:10023000010F2028F9D023280CD02B2804D02D28FA
:1002400005D0302809D076E041F00201EFE741F017
:100250000401ECE741F00801E9E741F01001E6E7AD
:100260000F9209E00F98484505DA00EB800402EB95
:100270004402303A0F92761C3278A2F130000A28FC
:10028000F0D330782E2818BFCDF8388022D116F858
:10029000010F2A2807D138683860761C50F8042BE3
:1002A00038600E9216E02D280CBF761C002000222C
:1002B0000E920AE040B90E9A4A4505DA02EB820432
:1002C00003EB4403303B0E93761C3378A3F13002EA
:1002D0000A2AEFD3ADF8401021A0317800F082FF58
:1002E00008B116F8010B8DF842009DF8420068280D
:1002F00004D1307868280AD1622105E06C2804BF57
:1003000030786C2803D171218DF84210761C12A828
:1003100006903A4616F8013B02A9504600F064F8F0
:1003200038B912AA02A9504600F0C8F900287FF592
:1003300064AF404618E02A2892D13A683A6052F8F1
:10034000040B3A6000280F9003D540420F9041F013
:100350000401761C95E7000000000000000000008A
:10036000686A6C747A4C000021B0BDE8F08F622896
:1003700020D0682811D06A2803D06C2827D0712893
:1003800025D10868C01D20F007000860D0E90023CF
:1003900008300860194610467047002A0A680A604B
:1003A000106803D0121D0A6000B217E0121D0A6027
:1003B00080B217E0002A0A680A60106803D0121D94
:1003C0000A6040B20AE0121D0A60C0B20AE0002AC8
:1003D0000A680A60106803D0121D0A60C1177047CE
:1003E000121D0A60002170477CB50D4611461C465F
:1003F0002E69B4F1250200F04F811C3A00F0848090
:10040000121F022A40F280800E3A00F00981521F2A
:1004100059D0093A78D0921E16D0521E35D0521EAD
:10042000022A71D9121F30D0521F00F09880521E3C
:1004300049D0521E00F0E280D21E00F0FF80921ED2
:1004400041D0D21E3FD02DE195F83A406C2C09D016
:100450006869421C6A610A680A6052F8043B0A60D3
:10046000335429E10A680A6052F8043B0A60009399
:10047000002201924FF0FF332B636A46294600F0B9
:1004800098F9002840F1188103E195F83A0001221B
:10049000FFF76DFFC5E90001002904D56869411C1B
:1004A00069612D220DE0288F810704D56869411C00
:1004B00069612B2205E0C00721D56869411C69618B
:1004C000202232541BE095F83A000022FFF74FFF3C
:1004D000C5E9000195F83800010710D5D5E90023DA
:1004E000002B08BF002A0AD044F02000782806D14B
:1004F000686930213154401C421C6A6134542146E1
:1005000068693044E86087E00868C01D20F0070093
:100510000860D0E9002308300860C5E90023D5E968
:100520000001C80F04D06869411C69612D220DE0EB
:10053000288F810704D56869411C69612B2205E079
:10054000C00704D56869411C69612022325468697A
:100550003044E8602146284600F036FAACE005F168
:100560003A02507820B14FF0FF340FF6043074E0B7
:100570001078622808D0682824D06A2812D06C2805
:100580002ED071280ED02BE00A680A6052F8040BB6
:100590000A6020B94FF0FF340FF6EC205DE0E96A05
:1005A000017089E00A680A6052F8040B0A6020B9F9
:1005B0004FF0FF340FF6D0204FE0EA6AD317C0E9BE
:1005C000002379E00A680A6052F8040B0A6020B937
:1005D0004FF0FF340FF6B0203FE0E96A01806BE096
:1005E0000A680A6052F8040B0A6020B94FF0FF3421
:1005F0000FF6942031E0E96A01605DE00A680A6064
:1006000052F8040B0A60002120F0000221F0FF33B1
:10061000C5E90023EE607821284600F02DF94BE073
:100620006C2285F83A200B680B6053F8042B0B60A2
:1006300052BB4FF0FF340FF684200EE095F83A20BD
:100640006C2AF0D00868086050F8044B0860EC6031
:100650003CB94FF0FF340FF6482000F0EBFD201AB4
:1006600076BD2E6B002E04D5204600F003FE044616
:1006700008E032460021204600F026FE002814BF84
:10068000041B3446AC6117E0294600F092F80028BC
:1006900012D54FF0FF3076BD6869411C6961252293
:1006A000325409E06969481C6861252272542100AE
:1006B00002D0431C6B613454002076BD2DE9F0411B
:1006C0000E4605469046726B7069316AB46A121A1A
:1006D000B069521A716A121AF069521A121A96F80F
:1006E0003800141B41070DD4002C0BDD2746B068E1
:1006F0002021A8470028B06057D0F06A401C7F1E18
:10070000F062F4D1736942463146284600F098FC05
:1007100000284AD1376A002F0ADDB0683021A84787
:100720000028B06041D0F06A401C7F1EF062F4D116
:10073000B369F2683146284600F082FCA8BB776AAC
:10074000002F09DDB0683021A847B06068B3F06AB7
:10075000401C7F1EF062F5D1F068B169F369421860
:100760003146284600F06CFCF8B9B76A002F09DD65
:10077000B0683021A847B060B8B1F06A401C7F1E55
:10078000F062F5D196F8380041070BD5002C09DD51
:10079000B0682021A847B06038B1F06A401C641EE0
:1007A000F062F5D10020BDE8F0814FF0FF30BDE8E8
:1007B000F0812DE9F8470D46A3B02F6B002F0646B8
:1007C000904648BF6FF000470FF60C1400F0A8FDEC
:1007D000D4E90023696B4018CDE90123812828BFA3
:1007E0004FF0FF3042D20024002F33DDD8F8001044
:1007F00001AA684600F0EEFC8146B9F1000F38D43A
:10080000D8F8000010B9B9F1010932D44F4521DB05
:100810006869484481280AD30021696303AA2946EC
:100820003046FFF74BFF040014D40020686103AB8F
:10083000D5F814A04A46694603EB0A0000F076FD9D
:10084000CA44C5F814A058F8040B002818BFA7EB39
:100850000907C9D14CB903AA29463046FFF72EFF34
:10086000044614B9002068616863204624B0BDE8DE
:10087000F0874FF0FF34F8E72DE9FC4307466F2976
:100880003E6908BF082405D041F02000782814BF35
:100890000A2410243C25D7E90023642918BF6929BC
:1008A0009046994605D1002B03D5D8F1000869EB95
:1008B0004909B9F1000F08BFB8F1000F1FD1386B1B
:1008C000E8B9082C4CD197F83800010748D53020FA
:1008D0003B2586F83B0043E000280ED597F838000A
:1008E00000F01400102808D17B6B7969386A5B1A14
:1008F0001B1A9A1A002AC8BF3A62BDE8F3838DF822
:100900000010404649462246E31700F063FD3032AE
:10091000D0B26D1E3A28019504DB9DF80000A0F1CD
:1009200051018A187255404649462246E31700F0A5
:1009300051FD80465FEA010908BFB8F1000F03D0FE
:10094000F86871198842DCD3082C09D197F838006F
:10095000010705D5705D302802D06D1E302070551E
:10096000C5F13C02BA617119F960386B8242B3DAA1
:10097000821A3A624FF6EF70398F01403987BDE82D
:10098000F3832DE9D04306460F4614464FF0000886
:10099000DFF8109412E0E00707D542464B46304698
:1009A000394600F09BFD06460F4640464946424602
:1009B0004B4600F093FD641080468946002CEAD136
:1009C00030463946BDE8D0832DE9F84F05468A46C2
:1009D0004AF020048EB0D5E90089612C02AE09D01E
:1009E000286B002848BF062003D408BF672C01D11C
:1009F00001202863D5E900014A005215521C0DD18F
:100A00000B030BD0AAF1610103201A29A86102D2BD
:100A10000FF2CC6110E00FF2CC610DE04A005215EC
:100A2000521C0ED10B030CD1AAF1610103201A292B
:100A3000A86116D30FF2B461E868032200F076FCD7
:100A4000C0E1CDE90C01DDE90C2323F00043B3F54F
:100A5000801F0DD20027002B08BF002A019703D169
:100A600011E00FF28461E7E701AA00F009FE0AE055
:100A7000CD48CE4900EB1350DDE90C2301900B402B
:100A8000CB4910461943C5E90001612C0DD1E86836
:100A900030210170821CBAF1610FEA600CBF78212D
:100AA000582141706869801C6861D5E90001CDE971
:100AB0000C01DDE90C2333F0004104BF00280023C2
:100AC00000F04881612C40F0A080286B4946002846
:100AD0004CBF4FF0210B00F1010B404600220023D8
:100AE000DDE90C8900F004FE01990BF1010738BF24
:100AF00089F00049091F002F01918DF808200DF1A0
:100B0000090040F33581A94900910646404649460F
:100B10000022002300F004FE80F029814800400DEF
:100B200000F11C0211D0002A0FDD40F2FF739A423F
:100B300005DBA04909F000400143002011E0009BC3
:100B4000194041EA025140460BE028F0000039F01C
:100B5000004108BF00280FBF49461C22494600F04B
:100B6000F7FD8046894600F091FEFF1F002F0446E6
:100B700009DD00F0A9FE02460B464046494600F05A
:100B8000B5FE80468946F01D072104E004F00F02FF
:100B900000F8012D2411002C01DD491EF6D5491E57
:100BA0005CBF002200F8012DF9D5DCE000201946D9
:100BB00002AA0A4400E05B1E12F80149491E844261
:100BC000F9D00F2804D10DF10900425C521C4254A7
:100BD000002904D50198001D02AE5B1C0190581E2F
:100BE0000CD43118AAF13A040A783032D7B23A2F2D
:100BF000A8BFA218401E01F80129F5D5286B0028CE
:100C000040F1A780591E2963A3E001996A4A47F27F
:100C10009750414391FBF2F2019229F00046D2F144
:100C2000070204DD40463146FFF7ABFE0AE05242C0
:100C300000206249FFF7A5FE02460B4640463146BA
:100C400000F0C6FE8046662C286B06BF019F0A375F
:100C500006273F18142FC8BF142730208DF808002E
:100C600089460DF1090000E03046002F34DD0646CC
:100C70004046494600F0D0FF01460A4606F1080307
:100C800004200A26B2FBF6F606EB860EA2EB4E0215
:100C9000303203F8012C0A22B6FBF2F202EB820E8C
:100CA000A6EB4E063036401E03F8026DE9D1083F30
:100CB000002F03F10806D7DD084600F0C1FF024609
:100CC0000B464046494600F011FE00223C4B00F026
:100CD00005FC80468946CBE70DF10901401A0DF16C
:100CE000090604E00199491E401E0191761C3178E5
:100CF0003029F7D0662C02D10199491C03E0652CFC
:100D00000CBF012100212B6BCB189842B8BF431EAA
:100D1000002B1ED4834204DAF05C3528A8BF3920AA
:100D200000DA30201946721E02EB010800E05B1E5B
:100D300018F80199491E8145F9D0392802D1705C13
:100D4000401C7054002904D50198401C16465B1CB9
:100D50000190019800B200901BB2324651462846DD
:100D600000F034F82EE0C61D002F3FF7CFAE30461E
:100D70000DF10901401A03465845C8BF5B46002BD8
:100D80000DF109063FF53AAF8342BFF60FAF0DF103
:100D90000900C15C07297FF709AF0F2007E70000B2
:100DA000CBCCCC0C0000244002FCFFFFFFFF0F80E7
:100DB0000000E03F0000F07FA08601000000F03F4F
:100DC00084D797410FB0BDE8F08F00002DE9F847B8
:100DD00083B006468A461746984600F0FDF9B8F1FA
:100DE000000F406A356B90F8009002DC4FF001086C
:100DF000BFA74AF02000BDF93040662808BF641C38
:100E000015D0672840F0848014F1040FC0F286806A
:100E1000AC4280F2838096F83800641C010702D44B
:100E2000A845B8BF454620B22D1A48BF00250FFA85
:100E300084FAF068B169BAF1000F25DC4A1C30234E
:100E40004354002D03DC96F83800010703D5F06801
:100E500000F80290521C15EB0A0FB8BF6C4220B28A
:100E6000441941424445B8BFA046B26171620FFACD
:100E700088F5F561F068B3692A463946184400F0F0
:100E800055FA641BB462C4E022B29045084417DAF4
:100E90004246394600F04AFAB0694044B061AAEBD4
:100EA0000801002D716203DC96F838100A0705D599
:100EB000F16801F80090F069401CF061B562A8E0AB
:100EC000394600F033FAB069002D5044A8EB04080D
:100ED00003DC96F838100A0703D5F16801F8009092
:100EE000401CB0610FFA88F08542F368B069B8BF62
:100EF000A8460FFA88F207EB0A01184400F016FA28
:100F0000B1690FFA88F00144B161281A706280E07B
:100F1000BAF1610F14D14FF0700A16E0A84504DA57
:100F200096F838100A0758BF45466D1E48BF002581
:100F3000BAF1670F14BF4FF0450A4FF0650A04E09D
:100F4000BAF1410F08BF4FF0500AB169F368481C6D
:100F5000B061002D17F8012B5A5403DC96F83810B5
:100F60000A071BD5F168431CB36101F80090002DFE
:100F700014DDA8F101080FFA88F039468542F768B8
:100F8000B8BFA8460FFA88F2F81800F0CFF9B06998
:100F90000FFA88F108446D1AB0617562F068B169A2
:100FA0000844002C80F800A003D42B224270811C3E
:100FB00003E02D2141706442811C00206A460AE052
:100FC00023460A2493FBF4F404EB8405A3EB4503C6
:100FD00002F8013B401C24B2002CF1DC012806DCA5
:100FE0004AF02002652A04BF302201F8012B48B9DB
:100FF000302001F8010B07E0401E1DF800303033AF
:1010000001F8013B0028F7DCF268B0691044091AC6
:10101000F16196F8380000F0140010280DD17269C3
:10102000B169706A8A18F1698218B06A8A188218E0
:10103000706B8242BCBF821A326204B0BDE8F08796
:10104000F8B505460E4617461C46002074B117F841
:10105000011BB068A847B06030B1F06A401CF06274
:101060000020641EF3D1F2BD4FF0FF30F2BD00004E
:101070007072696E74665F733A20256E20646973BE
:10108000616C6C6F776564007072696E74663A208B
:1010900062616420256E20617267756D656E7400F3
:1010A0007072696E74665F733A20626164202573A2
:1010B00020617267756D656E740000007072696EF4
:1010C00074665F733A2062616420256C73206172DC
:1010D00067756D656E740000000000000000000080
:1010E0006E616E004E414E00696E6600494E4600CC
:1010F0003000F0B40246106895681318506803EB8E
:101100005004C0071DD54D441BE013F8017B05F8C2
:10111000017B491EF9D1A0B1B60813F8011B06F0F6
:101120000306032E08BF13F8016B01EB06214942A9
:10113000801C294405D011F8016B05F8016B401E95
:10114000F9D1A3420ED013F8016B16F0030104BFCE
:1011500013F8011BC91C30090F28DAD113F8010B51
:101160000F30D6E7F0BC02F10C0070471B48704707
:1011700070B45368D418042B09DA41B1057804F827
:10118000015B10F8016B16B15B1C491EF3E753605D
:1011900070BC704738B514461D4661B1FFF7E8FFD3
:1011A00061686A6B204690476FF00102811A02D095
:1011B000491E01D001E003E005E00021616032BD7D
:1011C0006FF0010032BD4FF0FF3032BDDA6B1047D7
:1011D000024BDFE7014BF9E7014870471C42002052
:1011E000E4410020C9B202788A421AB11CBF10F84B
:1011F000012FF9E718BF0020704730B4002513E035
:1012000050F8042BD30744BFA9F101039A18091F12
:10121000042942F8045BFAD213468C0744BF1580B8
:101220009B1CC90748BF1D7050F8041B0029E7D15B
:1012300030BC704780B500B906A005490B681BB1EA
:1012400022220021984701E000F007FD222002BD84
:1012500014450020636F6E73747261696E74206848
:10126000616E646C65723A20626164206D657373AF
:101270006167650000F10103810704D010F8011BCC
:10128000820781B1FAD10268A2F10131914311F0D4
:10129000803104BF50F8042FF6E709BAB1FA81F1A2
:1012A00000EBD100401CC01A7047B1F5807F02D31B
:1012B0004FF0FF3070470170012070470078401EEA
:1012C0008041C043C00F7047C9B2830706D0521E89
:1012D00022D310F8013B9942F7D11FE0083A13D30B
:1012E00002F1040241EA012141EA014150F8043BC4
:1012F000121F21BF4B40A3F1013C2CEA030C1CF050
:10130000803FF3D0C9B2001F083210F8013B521ED3
:1013100028BF91EA030FF8D818BF0120401E70477C
:1013200080B5FFF723FF006C02BD000062B38B079E
:1013300008D0521E11F8013B00F8013B00F0248058
:101340008B07F6D1830740F0208000BF103A07D307
:1013500030B4B1E83810103AA0E83810F9D230BCF7
:10136000530724BFB1E80810A0E8081044BF51F8A3
:10137000043B40F8043BD20724BF31F8022B20F88D
:10138000022B44BF0B7803707047121F17D35B000A
:1013900009D151F8043B20F8023B1B0C121F20F826
:1013A000023BF6D20BE051F8043B00F8013B1B0A6C
:1013B00020F8023B1B0C121F00F8013BF3D238BF90
:1013C000121D521E24BF11F8013B00F8013BF8D852
:1013D00070470000D3BBD9B1B2F5803F5BD2022A7F
:1013E0001ED98C46B1FBF2F102FB11C31B0443EA88
:1013F0001043B3FBF2FC02FB1C3380B240EA034310
:10140000B3FBF2F002FB103240EA0C4000237047BD
:10141000022A05D98446B0FBF2F002FB10C27047E5
:101420004AB105D100F0010249085FEA3000704777
:1014300000220023704700F013BC0B0002000021C3
:1014400000207047F7D3002200237047904271EBD1
:10145000030CF2D370B5B1FA81F4B3FA83F52C1B07
:10146000A340C4F1200532FA05F63343A2405FF0F1
:101470000046E64002E05B085FEA3202841A71EB44
:10148000030524BF204629467641F4D302000B0011
:101490003000002170BD70B5B1FA81F4B2FA82F566
:1014A000C4F120046419B4F12006DAD3B2405FF02D
:1014B0000044F440002502E052085FEA3303C61AF4
:1014C00071EB020E24BF3046714664416D41F3D387
:1014D00002000B002000290070BD0000B0B581EAB9
:1014E000030C0CF0004C40F2FF7515EA11541DBFBF
:1014F00015EA1357AC42AF4239E0E41923EA4553E9
:1015000043F48013C90241F0004141EA505EC70232
:101510001100A7FB020200284FF00000EEFB0120A3
:101520004FF00001E3FB072118BF42F00102401811
:1015300000214941E3FB0E01A4F580640F0302D2B0
:1015400052004041494154F101046CDD470872F1F9
:10155000004250F1000051EB0451A1F580115CBF35
:1015600041EA0C01B0BD4CEA05510020B0BD05EACE
:101570001357AC4214BFAF4241E050EA410E1CBFCA
:1015800052EA430E02E061460020B0BD24423C44D2
:101590001BD15FEA070EF6D0090302BF0146002007
:1015A000AEF1140EB1FA81F7AEEB070401FA07FEB3
:1015B0000C37C7F1200100FA07F7C8404EEA000EC9
:1015C00023EA455343F48013A2E733F00043B3FA10
:1015D00083F704BFB2FA82FE77440B3FE41BB7F1F6
:1015E000200E2FBF02FA0EF3BB40C7F1200E22FAE5
:1015F0000EFE38BF43EA0E03BA40641C82E750EA8D
:10160000410E14BF52EA430E6FF000014FF4001771
:1016100017EB430F8ABF194617EB410FB5E74CEAAA
:1016200005510020B0BDD4F10104B4F120070FDA58
:10163000C4F12007520828BF42F0010210FA07F552
:1016400001FA07F7E1BF2A43E0403843E1400FE0E9
:10165000352C98DCC7F1200452EA400220FA07F248
:1016600018BF42F0010231FA07F0A1400A430021FD
:1016700072F1004250F1000051EB0C01B0BD0000CE
:1016800010B5144600F002F8226010BDC1F30A53F1
:1016900043B14A0012F5001F28D2A3F2FE32A1EB9B
:1016A0000251704750EA410C20D001F0004C31EA61
:1016B0000C01B1FA81F204BFB0FA80F3D2180B3AF0
:1016C000B2F120032CBF00FA03F1914041EA0C0172
:1016D0003EBFC2F1200C20FA0CF319439040524255
:1016E00040F2FD33D21A01EB0351704700227047DC
:1016F0004FF4001C1CEB410F94BF1CEB430F09E09F
:1017000041EA030C50EA4C0C52EA0C0C03D2994209
:1017100008BF9042704714BF8B428242704700005E
:101720004FF4001C1CEB410F94BF1CEB430F09E06E
:1017300041EA030C50EA4C0C52EA0C0C03D28B42E7
:1017400008BF8242704714BF994290427047000020
:10175000124254D440F2FF7C1CEA11530FD063456F
:1017600031D09B1863453CBF01EB0251704701F03B
:10177000004141EA0C510020AFF30080704750EA6D
:10178000410320D001F0004C91EA0C011CD0B1FAC9
:1017900081F30B3B9A420DD9D21A994051EA0C01C0
:1017A000C3F1200C20FA0CFC61449840531C40F219
:1017B000FF7CD7E7914041EA0C01C2F1200C20FAEE
:1017C0000CF3194390407047B0FA80F31533202B87
:1017D000E0D3202AEED3203A203B9A4209D9D21AEC
:1017E00000FA03F141EA0C010020531C40F2FF7C97
:1017F000B8E700FA02F141EA0C01002070475242BA
:1018000040F2FF7C1CEA11530DD06345DBD0B2EBF4
:10181000030C3CBFA1EB025170470CF1010221EA1D
:10182000035141F4801150EA410CCCD001F0004C3E
:10183000352A27DC30B481EA0C01B2F1200309DA41
:10184000C2F12003044601FA03F5D0402843D140F9
:101850009C400CE0C3F12002450020FA03F418BFBD
:1018600044F0010421FA03F091400C43002174F18B
:10187000004550F1000051EB0C01244230BC7FF4D4
:101880007BAF70476146002076E70000C1F30A5342
:1018900040F2FE329B1A14DDD3F120034FEAE172CD
:1018A00008DDC90241EA505141F00040D84080189B
:1018B0005040704703F2E13010B1D24382F0004053
:1018C0007047002070470000C11768B14840401AB7
:1018D000B0FA80F29040D21CC907C2F5846241EA96
:1018E000025202EBD02140057047000070B44FF067
:1018F000004591EA030F40F1B5816B40841A71EB0A
:10190000030603D2001BB141121973414FF4001CAE
:101910001CEB410F34BF7CEB430442E00C0DA4EB05
:101920001356352E4FDC45EAC323DB0A45EAC121B5
:10193000C912B6F120050DDD63FA05F6EB4086EA23
:101940000305124218BF45F00105C01851F100010E
:101950000CD213E062FA06F5F2405540F3415A40CA
:10196000B340F3405A408018594107D349085FEA11
:1019700030005FEA350528BF45F0010501F580110B
:10198000420875F1004250F1000041EB04514E0055
:1019900016F5001F70BC38BF70470020090D0905FF
:1019A00070471CEB410F10D252EA43060BD0BCEB40
:1019B000410F05D80C0DAB43661E342EB6DD02E098
:1019C000AB438018594170BC704770BC7047000031
:1019D000F0B540F2FF7581EA030C0CF0004C15EAFB
:1019E00011541DBF15EA1357AC42AF42E5E0BC41AC
:1019F000C1F31301C3F31303801A994143F4801315
:101A000004D2641E4000494180185941C90241EA8C
:101A10005051B1FBF3F603FB1611A2FB0675D7EB91
:101A2000C020A94102D2761E80185941C90241EA5C
:101A30005051B1FBF3FE03FB1E11A2FB0E75D7EB59
:101A4000C020A94103D2AEF1010E8018594189028C
:101A500041EA9051760546EA8E2EB1FBF3F603FB80
:101A60001611A2FB0675D7EB8020A94102D2761E83
:101A700080185941C90241EA50514EEA060EB1FBA5
:101A8000F3F603FB1611A2FB0675D7EBC020A941A4
:101A900002D2761E80185941C90241EA5051B1FB69
:101AA000F3F703FB1711A2FB0735D3EBC020A941C5
:101AB00067F100070CBF004247F0010766F3D52726
:101AC0004FEA1E31B80814F5806412DDBD0775F1C8
:101AD000004250EB0E5051EB045111F5801F5CBFDA
:101AE00041EA0C01F0BD4CF07F6141F0E041002083
:101AF000F0BDBD076D0840EA0E5041F48011D4F1ED
:101B00000104B4F120060ADAC4F120060200E04024
:101B100001FA06F3E1401843B24015430EE0342CBD
:101B200013DCC6F1200445EA40056D0820FA06F2F0
:101B3000154321FA06F0A1400D43002175F1004242
:101B400050F1000051EB0C01F0BD00205FEA0C01E8
:101B5000F0BDCFB992185B41B3FA83F704BFB2FA74
:101B600082F6BF190B3FB7F120062FBF02FA06F32A
:101B7000BB40C7F1200622FA06F638BF3343BA400D
:101B80001CB1E419641E33E77F4231F00041B1FA21
:101B900081F404BFB0FA80F6A4190B3CB4F120061E
:101BA0002FBF00FA06F1A140C4F1200620FA06F684
:101BB00038BF3143A0403C1B1AE7AC421ABF05EACC
:101BC0001357AF4212E050EA41061CBF52EA4306E7
:101BD000BFE750EA4107304661461CBF41EA055164
:101BE000F0BD52EA430C08BFC143F0BD00204FF4E2
:101BF000001616EB410F98BF16EB430F08BF16EB0C
:101C0000410F24BFC14305E016EB430F0CBF6146F3
:101C10004CEA0551F0BD0000400D491840EA812012
:101C20000CD2490DA1F58061491C40F0004005DB54
:101C3000D1F11F0154BFC840C01770470020704742
:101C4000014648B1B0FA80F18840C91CC1F58461F1
:101C5000090501EBD02140057047012000F0B8B81C
:101C600070470000841A71EB030604D26E40001B1B
:101C7000B141121973414FF4001C1CEB410F34BFEA
:101C80007CEB430683E00C0DA4EB1356362E00F3D9
:101C90007C80012E45EAC32341DC43EA525312BF44
:101CA000D20292025B08240545EAC12141EA505163
:101CB000D2EBC020994125D407D1B0FA80F610FAB2
:101CC00006F162D00020203608E0B1FA81F6B1407A
:101CD000C6F1200220FA02F21143B0404FEAF47438
:101CE000B4EB465434F001064FEA74040AD8D6F532
:101CF0000016760D04F00044F04061FA06F2504000
:101D0000F1404840C00A40EA415021F0004128BF5C
:101D10005FEA500550F1000044EBD12135E0DB0AC9
:101D200045EAC121C90AB6F120050EDD42EA0242A8
:101D3000120CC5F1200603FA06F6EB4042EA06054E
:101D40006D42984161F100010DE062FA06F5F24042
:101D5000554063FA06FC82EA0C02F3405A406D4299
:101D6000904161EB030111F4801F05D1641E6205EF
:101D700002D06D004041494121F48011430875F1C2
:101D8000004350F1000041EB045170BC70471CEB64
:101D9000410F15D223F0004352EA43060BD04FEA1D
:101DA0004C0CBCEB410F04D80C0D661E342EB7DD75
:101DB000EBE7801A994150EA410608BF0021E4E7A9
:101DC00008BF1CEB430F28BF6FF00001DDE70000E8
:101DD00080B5AFF30080024A11001820ABBEFBE7CC
:101DE0002600020038B5040001D1012032BD00F008
:101DF0002CF818B900F025F800F048FA0AE000685D
:101E0000C16841F00101C160026842F00102026054
:101E10000020704702206870211D206800F035F90D
:101E200001206870002032BD38B5040001D10120C6
:101E300032BD00F00AF818B900F003F800F06DFAAE
:101E4000E8E7002129702046704704F138056878DA
:101E5000704710B50446206801698A0715D5C16826
:101E60008A0712D56FF00201016101222276806992
:101E700010F0030F204602D000F0A0FA03E000F0BB
:101E80009EFA00F087F800202076206801694A0752
:101E900015D5C1684A0712D56FF00401016102220D
:101EA0002276806910F4407F204602D000F086FA46
:101EB00003E000F084FA00F06DF80020207620683E
:101EC00001690A0715D5C1680A0712D56FF0080124
:101ED000016104222276C06910F0030F204602D06F
:101EE00000F06CFA03E000F06AFA00F053F800200A
:101EF000207620680169CA0615D5C168CA0612D5C0
:101F00006FF01001016108222276C06910F4407F51
:101F1000204602D000F052FA03E000F050FA00F040
:101F200039F80020207620680169CA0708D5C16801
:101F3000CA0705D56FF001010161204600F091FB51
:101F4000206801690A0608D5C1680A0605D56FF040
:101F500080010161204600F0DDFB206801694A062E
:101F600008D5C1684A0605D56FF0400101612046D9
:101F700000F0D1FB206801698A060AD5C1688A068B
:101F800007D56FF0200101612046BDE8104000F048
:101F9000C3BB10BD204600F0C0BB70B500F063F8B5
:101FA00001D1022070BD00F065F832B1042A17D0CB
:101FB000082A28D00C2A39D04AE03068294600F097
:101FC000D9F83068816941F0080100F048F821F043
:101FD0000401816131688A69286902438A6137E0B6
:101FE0003068294600F099F83068816941F4006151
:101FF00000F035F821F4806100F031F82A6941EAF7
:102000000221816124E03068294600F0DBF8306865
:10201000C16941F0080100F01EF821F00401C1611E
:102020003168CA6928690243CA6111E030682946EB
:1020300000F0F3F83068C16941F4006100F00BF87A
:1020400021F4806100F007F82A6941EA0221C161A8
:1020500000F015F870BDC1613068C16970478161D9
:10206000306881697047064606F138040D462078CD
:102070000128704701202070022161707047012003
:1020800060700021217000207047F0B5744C056825
:10209000744B754E754FDFF8D8C1A04218BFB0F130
:1020A000804F07D0604518BFB84203D0B04218BF78
:1020B00098420DD14A6825F070051543A04218BF1B
:1020C000B0F1804F17D060451CBFB842B04212D06B
:1020D00098421CBF674A90420DD0674EB0421CBF69
:1020E000664A904207D0664EB0421FBF654A904292
:1020F000654EB04203D1CA6825F4407515430560AA
:10210000A0428D68C5620A68826212BF984209695E
:10211000016301224261F0BD000070B5026A504EB9
:1021200022F010020262B042056A436884690A68BC
:1021300024F4E64444EA02248A6825F0200545EAAE
:1021400002151CBF474A90420DD1CA684E6925F05E
:10215000800545EA02158A6923F44063164325F099
:10216000400543EA860343608461496881630562F0
:1021700070BD0000F0B5026A520852000262066AA1
:10218000446885690B688A6825F073051D4326F04D
:1021900002061643324B98421CBF324FB8420BD155
:1021A000CA684B6926F0080624F4407416438A690D
:1021B0001C4326F00406144344608561496841636A
:1021C0000662F0BD70B5026A22F480720262056A8E
:1021D0004368C4690A688E6824F07304144325F4C4
:1021E00000751F4A45EA062590421CBF1D4EB042AD
:1021F0000DD1CA684E6925F4006545EA02258A6951
:1022000023F44053164325F4806543EA06134360E4
:10221000C4614968C163056270BD70B5026A104E41
:1022200022F480520262B042046A4268C3690D68B7
:1022300023F4E64343EA05238D6824F4005444EA7A
:1022400005341CBF074DA84204D14D6922F48042D9
:1022500042EA85124260C36149680164046270BD4C
:102260000000014000040140000C00400008004054
:10227000000400400040014000440140004801408B
:1022800000180040001C0040002000407047000083
:1022900081B00020009000224448416841F4804110
:1022A0004160416801F48041009100990092036807
:1022B00043F080530360006800F080500090009865
:1022C00001B0704738B586B000F05FF82468384D2B
:1022D000AC4220D10020009000223648016941F034
:1022E00000510161016901F00051009100990092D3
:1022F0001021036843F001030360032200F04AF851
:1023000001A900F00BFA00220021362000F020FB8A
:10231000362000F03AFB07B030BD0068B0F1804FC6
:1023200000D0704780B5002120480091012102684B
:1023300042F0010202600022006800F001000090FB
:1023400000981C2000F004FBBDE802401C2000F0B7
:102350001CBB10B586B000F018F82468B4F1804FAB
:1023600011D10020009002221248016841F00101C1
:102370000160082100F00EF803220121059104926A
:1023800001A900F0CBF906B010BD044601A8142144
:1023900000F010BB006800F00100009000980648B3
:1023A00001910292002103917047000040380240E1
:1023B000007400403038024000000240704770470F
:1023C0002DE9F04F89B000F0F9FA00F0FFF801A80C
:1023D000142100F0EFFA00200090A54DA548DFF889
:1023E00098820168A54F0FF2E0290FF2A82ADFF8C2
:1023F00090B241F010010160026802F010020092F8
:10240000002200990092036843F00403036001680E
:1024100001F00401009100990092036843F08003E9
:102420000360016801F080010091009900924FF46F
:102430006041036843F001030360006800F001009D
:102440000090009800F0BFF80C200021019002914C
:102450000391404601A900F061F94FF460410191F8
:102460000122002103910491029201A9284600F063
:1024700055F900BF92A01C21D0E90023CDE900232B
:1024800002A800F097FA44F284103C184FF0804103
:10249000002221606260A260E26022612046FFF7B4
:1024A000C3FC0021009101912046694600F0A0FA8A
:1024B00060210022029103920492069202A90C224A
:1024C0002046FFF76AFD2046FFF743FF7AA26D4BD7
:1024D000D2E90001CDE90001E36344F2C0103E18E7
:1024E000304600F0ABFA24210091002201926946A7
:1024F000304600F013FB0021304600F0B3FA08E04C
:102500000421404600F0E6F918B900BF66A000F0CB
:102510003DFB0421404600F0DDF90128F0D158468A
:1025200000F034FB504600F031FB00F044F8052485
:10253000012200F046F84FF47A7000F03BFB0022D5
:1025400000F03FF84FF47A7000F034FB641EEFD1D6
:1025500000F031F8484600F019FB01224FF48041A9
:1025600000F031F800F023F800224FF4804100F031
:102570002AF800BF58A000F009FB00BF5BA000F0E4
:1025800005FB00BF5DA000F001FB082401224FF411
:10259000004100F018F800F00AF800224FF4004162
:1025A00000F011F800F003F8641EEFD1B1E74FF42A
:1025B000FA7000F0FFBA3B7800220021304600F0AC
:1025C000D4BA4FF40051284600F08AB980B592B0D1
:1025D00006A8302100F0EEF901A8142100F0EAF974
:1025E000002000904FF480332748016841F080516B
:1025F00001600021006800F080500090009823489E
:102600000091026842F4404202600122006800F436
:102610004040009006A80099069202214FF48002E3
:102620000C910D920421B4220E910F9202210422EA
:1026300007931091119200F0D1FA00F04BFC0221A7
:102640000291002203920F204FF4A05101900491B7
:102650004FF480520592052101A800F077FC13B0D9
:1026600000BD00680A49884208BF00F057BD7047A6
:1026700000080240303802400010024000000020F4
:10268000AC3A00080074004040380240007000403E
:1026900000140040426567696E6E696E6720707253
:1026A0006F636573730A00005369676E616C20691C
:1026B00073206C6F77210A0000000000000000000A
:1026C00000000000000000002A2A446F2050726FB2
:1026D000636573732A2A0A0053616D706C696E67B3
:1026E0002073746F707065640A0000004D6F746F22
:1026F000722073746F707065640A00002A2A456E38
:10270000642050726F636573732053746172742A0E
:102710002A0A000070477047704770472DE9F84754
:1027200002460B46002470480F2101271D68A74070
:1027300007EA0508B84540F0C7805D68022D18BF5C
:10274000122D4FEA840911D1E50802EB850C09F03E
:102750001C05DCF820E0D3F810A001FA05F62EEAFB
:1027600006060AFA05F53543CCF820504FEA440C2A
:102770000326156806FA0CF66FEA060E1E7906F0B7
:1027800003060EEA050506FA0CF6354315605D688A
:10279000012D18BF022D03D0112D18BF122D10D1FD
:1027A0009568DE680EEA050506FA0CF63543956075
:1027B000556825EA07075D68C5F30015A5402F4356
:1027C0005760D7680EEA07059F6807FA0CF635438D
:1027D000D5605D68EF0077D50025009509F00C09FC
:1027E0000768424E47F48047076001FA09FE056812
:1027F00005F480450095009FA70856F8275025EA64
:102800000E0E3B4DAA4208BF00252CD0394DAA42DE
:1028100008BF012527D0384DAA4208BF022522D083
:10282000364DAA4208BF03251DD0354DAA4208BF28
:10283000042518D0334DAA4208BF052513D0324DC8
:10284000AA4208BF06250ED0304DAA4208BF072570
:1028500009D02F4DAA4208BF082504D02D4DAA4209
:102860000CBF09250A2505FA09F545EA0E0546F8C3
:1028700027506FEA0807284E356807EA050C5D689F
:10288000ED0348BF48EA0C0CC6F800C0756807EABB
:10289000050C5D68AD0348BF48EA0C0CC6F804C0DF
:1028A000B56807EA050C5D68ED0248BF48EA0C0C04
:1028B000C6F808C0F56807EA050C5F68BD0248BFA6
:1028C00048EA0C0CC6F80CC0641C0F2C7FF62DAF28
:1028D000BDE8F1870069084018BF0120C0B2704709
:1028E00002B9090481617047443802400838014048
:1028F000000002400004024000080240000C0240B8
:10290000001002400014024000180240001C024067
:102910000020024000240240003C01400901020066
:1029200006D51F4A00F00F00104400F8041C704741
:102930001C4B195470471C4B19684FF6FF020002DC
:10294000114000F4E06008431849084318607047DC
:1029500038B5154B1C68C4F30223C3F10704052CDA
:1029600028BF04241D1D072D34BF0023DB1E0125B5
:1029700005FA04F4641E2140994005FA03F35B1E36
:102980001A401143BDE83440C8E7012200F01F019E
:10299000074BFFE78A40400943F8202070470000BA
:1029A00018ED00E000E400E00CED00E00000FA05A6
:1029B00000E100E0002200F0B9BB000080B50B4848
:1029C000016841F400710160026842F480620260B3
:1029D000016841F4807101600320FFF7ACFF002023
:1029E00000F0BEFBFFF754FC002002BD003C02409B
:1029F00030B500F138031A78012A01D1022030BD28
:102A000001221A7002245C700268546824F0700479
:102A10005460046865680A681543656002689468D4
:102A200024F08004946002689468486804439460C9
:102A3000012159700020187030BD000010B504004D
:102A400001D1012010BD207920B9002161712046FB
:102A5000FFF738FC02202071002121610120207144
:102A6000002010BD10B54279012A01D1022010BD0D
:102A700001224271022303710123026814688B4012
:102A80001C431460002902681368116809D15B07B0
:102A900012D501F0380138290ED1516841F00101F9
:102AA00009E05B0308D501F46011B1F5601F03D1A3
:102AB000516841F00201516000F051F810BD10B5AD
:102AC00004462068416B8A0410D5042121714FF41B
:102AD0000051226942F001022261416320680268CC
:102AE00022F480520260204600F078FB2068416B9F
:102AF0008A0012D5042121714FF00051226942F061
:102B00000202226141632068026822F08052026062
:102B10002046BDE8104000F062BB10BD70B543799F
:102B2000012B01D1022070BD0123437102240471E5
:102B300040F6FE7503681C680E68496895400E43B0
:102B4000AC43964034431C60C02401680B6804FA0F
:102B500002F223EA02020A6000F001F870BD0121CE
:102B60000171002242710020704738B500240094A2
:102B70000029056800950CBF08321432009812181D
:102B8000009200980360002032BD00000EB4C0B572
:102B9000024603A800210190009101AB01210448E5
:102BA00078440C30FDF702FB06BC5DF810FB00BF5B
:102BB0009B0F000038B5044600F012FB14F1010F22
:102BC000054602D004480178641800F009FB401B58
:102BD000A042FAD331BD00BFD44100202DE9F84313
:102BE000040017D02078B74EC10745D5B06800F073
:102BF0000C00042807D0B06800F00C0008280BD1A6
:102C00007068410208D53068810335D560680028B6
:102C100040F0BA80012053E16068B0F5803F04D1F4
:102C2000306840F48030306011E0B0F5A02F30689B
:102C300006D140F480203060316841F4803105E0F5
:102C400020F480303060316821F480213160606888
:102C500068B100F0C5FA05463068810300F1948040
:102C600000F0BEFA401B6528F6D3032028E100F0EF
:102C7000B7FA05463068810340F1868000F0B0FA6B
:102C8000401B6528F6D3F0E700F0AAFA401B0228A3
:102C900040F2A780E9E7E06870B10121396000F0F7
:102CA0009FFA05463068810700F1CB8000F098FA62
:102CB000401B0228F6D9D8E7386000F091FA0546A3
:102CC0003168880763D500F08BFA401B0228F7D9DA
:102CD000CBE7086000F084FA0546706F810775D570
:102CE00000F07EFA401B0228F7D9BEE70528306FB6
:102CF00006D140F004003067306F40F0010005E07D
:102D0000400840003067306F20F00400306741F227
:102D10008938A06868B100F063FA8146306F810796
:102D200000F19C8000F05CFAA0EB09004045F5D36F
:102D30009BE700F055FA8146306F810740F18E80A5
:102D400000F04EFAA0EB09004045F5D38DE700F006
:102D500047FA401B022840F2968086E700F040FACE
:102D6000001B022840F2A7807FE70020386600F0B1
:102D700037FA04463068810140F1A18000F030FA52
:102D8000001B0228F6D970E720784F4F81071BD52A
:102D9000B06810F00C0F09D0B06800F00C000828E3
:102DA0007FF479AF706841023FF575AF30688107F5
:102DB00003D5E06801287FF42DAF3168206921F048
:102DC000F80141EAC0013160217808070DD560693A
:102DD0003E4900283FF47DAF01220A6000F000FA6E
:102DE0000546706F81077FF54FAF207841073AD5D0
:102DF000306C0025C1000AD400950125316C41F0EA
:102E000080513164306C00F0805000900098DFF801
:102E1000C080D8F80000C1051BD4D8F8000040F4E9
:102E20008070C8F8000000F0DBF98146D8F8000097
:102E3000C1050ED400F0D4F9A0EB09000228F5D9A1
:102E400013E73068216920F0F80040EAC1003060E3
:102E5000BAE7A06801287FF449AF4DE71DB1306C97
:102E600020F080503064A06948B3B16801F00C01D3
:102E700008293FF4CFAE02287FF477AF00203866F0
:102E800000F0AEF90546306881013FF560AFE269B8
:102E9000206A616A0243A06A400842EA8112401E29
:102EA00042EA0042E06A42EA006272600121396649
:102EB00000F096F90446306881017FF54FAF00209D
:102EC000BDE8F2830038024000004742800E4742CE
:102ED00000700040F8B500F027F8012100F01EF85E
:102EE000316000F07DF907462868C1030CD400F07A
:102EF00077F9C01BA042F7D30320F2BD00F070F9B0
:102F0000801BA04205D3F7E70120706000F068F94C
:102F1000064628688103F1D50020F2BD006800F064
:102F200080500090009870470020009040F2E934F3
:102F30000448054E0168024D41F080510160704720
:102F4000047000404038024040000E422DE9F0413C
:102F500004000F4677D0534E306800F00F00B8429F
:102F600002D200F072F86ED120684F4D810712D561
:102F7000400703D5A96841F4E051A9602078010712
:102F800003D5A86840F46040A860A968A06821F053
:102F9000F0010143A9602178C8074CD56068012879
:102FA00002D129688A0305E0022818BF032803D14B
:102FB00029688A0103D446E029688A0743D5A968AD
:102FC000890840EA8100A86000F00AF98046A868F4
:102FD000616800F00C00B0EB810F2CD000F000F91C
:102FE000A0EB080041F289318842F0D3032020E0B1
:102FF0002078410705D5AA68E06822F4E052024330
:10300000AA602178080706D5A968206921F46041E3
:1030100041EAC001A96000F051F8AA682349244B95
:10302000C2F30312895CC8401860002000F098F8D1
:103030000020BDE8F081306800F00F008742D7D251
:1030400000F003F8D4D00120F3E73770316801F0C5
:103050000F01B94270471648164A006813681649AE
:10306000C3F38222FFE7895CC840704710B50F2286
:103070000260104A136803F003034360146804F00D
:10308000F0048460136803F4E053C3601268D2084C
:1030900002F4E05202610348026802F00F020A6083
:1030A00010BD0000003C024000380240B439000866
:1030B000E041002008380240883B000830B5144C3D
:1030C000606800F00C00042802D0082802D01DE03F
:1030D000104830BD226820680023410202F03F0200
:1030E00004D525680B49C5F3881003E020680A4918
:1030F000C0F38810A1FB0001FEF76CF92168C1F351
:103100000141491C4900B0FBF1F030BD024830BD1F
:103110000438024000127A000024F400024841689A
:1031200002788A1842607047D441002000B500BF81
:10313000130096469446103928BFA0E80C50FAD8E0
:103140005FEA417C28BF0CC048BF40F8042BC90788
:1031500028BF20F8022B48BF00F8012B00BD00005B
:1031600018B5014687B000223720FFF7F1FB372062
:10317000FFF70BFC00200090144C1548016841F04B
:103180002001016001A9006800F020000090009873
:1031900002A8FFF76BFFFFF75EFF0E49216040F2C8
:1031A000E73240000C49E260B0FBF1F0401E606085
:1031B00000222261A2602046FEF714FE18B92046C4
:1031C000FEF71DFE00E0012008B010BDD044002035
:1031D000403802400014004040420F0070477047E2
:1031E00001484068704700BFD441002010B5044634
:1031F000AFF30080204600F005F80446AFF30080EE
:10320000204610BD70B500F10F06F608F600B0427A
:1032100040D2082E04D2082602E0083000F047F819
:10322000DFF804512C68210005D1002007E0026876
:10323000B24221D2011D08680028F8D12068291D5A
:103240000A68824222D01368B34238BF111DF7D3F7
:1032500012E093190B60801B54685C600B68186067
:103260001660096800291DBF48680028081D002055
:10327000286002F1080070BD61B10A681068A0F111
:103280000803B342E5D250680860EAE700F04EF860
:103290000028C2D1002070BD10B5040006D0AFF3E5
:1032A0000080204600F003F8AFF3008010BD002836
:1032B00000D1704770B4A0F108021368072B2BD916
:1032C00013F0070F28D1184C616809B18A4202D265
:1032D0005160626013E0486800B3904238BF014615
:1032E000F9D31BE0964203D11B180B600A4606E097
:1032F000486810B1134498420ED350604A60506839
:1033000050B11368D518854206D1002626600168A1
:10331000CB1813604068506070BC704708680E1886
:10332000B242DFD270BC70470C45002007490868E4
:1033300008B1002070470648C008C0000860054971
:10334000C908C900091A0160704700BF184500206C
:1033500027490020204B00202DE9F04107468846F0
:10336000387810F0030F16461D4633D0384600F06B
:1033700099F878BBB8F1000F1CBFD8E90001861995
:10338000012D2ED13888C10415D5396A07F14402C0
:10339000384600F0A3F83A6B044602B93A69F96876
:1033A000384600F09BF8361B341A7A69F9683846BB
:1033B00000F094F8261A1EB94DB916F1010F09D084
:1033C00097F903002A46314600F08EF8064616F1BA
:1033D000010F09D12320AFF300804FF0FF30BDE88B
:1033E000F081022DE8D1EBE7388810F4405F0ED071
:1033F0007868F86038617861B86107F144017868ED
:10340000F861396207F13000002178623963B8F160
:10341000000F05D0D8E9020107F13402C2E900012A
:103420003B884CF6FF6003403B800020BDE8F08104
:1034300070B50546AFF300802888810415D56E6805
:103440000024EA6895F903003146914212D2521ADB
:1034500000F070F810F1010F1CBF00283618F0D1F1
:103460000FE04DF6FF70014029802846AFF3008041
:10347000002070BD0022002100F05CF810F1010F67
:1034800000D101246868E860A861E861002C2988FF
:10349000E7D041F4007129802846AFF300804FF057
:1034A000FF3070BDF8B5A0B9AFF3008000250A4E1B
:1034B00008244FF0FF37306820B1FFF7B9FF00282C
:1034C00048BF3D46361D641EF5D1AFF30080284647
:1034D000F2BDBDE8F240ABE73C430020914234BF6F
:1034E000511A0021084670473EB504000D00012A1C
:1034F00002D100F0C1F807E0022A07D100940020B1
:10350000019069460C20ABBE2D1801E0002A0CD1B9
:103510000094019569460A20ABBE002805D100221F
:103520002100280000F085F801E00020C04303B02E
:1035300030BD0000F8B50D00164611D1012818BFA6
:1035400010F1010F0AD129490A6D3AB100230B6528
:10355000012000F0B3F810F1010F44D00020F2BDBB
:10356000012803D0BDE8F84000F0A8B8502E13D9C8
:103570001E490A6D3AB100200865012000F09EF84E
:1035800010F1010F2FD032462946012000F096F8A5
:1035900010F1010F14D126E03446144F84B13A6D76
:1035A0000020B918502A0DD215F8013B01F8013B53
:1035B0000A2B08BF0120521C641EF3D13A6503E0B8
:1035C0003046F2BD3A6524B90028F9D0386D00289C
:1035D000E4D03A6D002038653946012000F06EF8DD
:1035E00010F1010FDAD14FF0FF30F2BDDC430020C3
:1035F00010B4314A002113461C6884421EBF491C86
:103600009C6884421EBF491C1C69844209D09C6985
:10361000491C844205D0491C20331029ECD310BC2E
:103620007047002342F8313002EBC1014B6010BCFF
:10363000704770B4204C002325462E688E421EBF72
:103640005B1CAE688E421EBF5B1C2E698E4209D089
:10365000AE695B1C8E4205D05B1C2035102BECD371
:1036600070BC7047054604EBC303012A04BF5968C8
:103670004D195D6070BC704710B40F4A00211346AD
:103680001C6884421EBF491C9C6884421EBF491CA2
:103690001C6984420AD09C69491C844206D0491C9A
:1036A00020331029ECD310BC0020704702EBC1007E
:1036B000406810BC704700005C43002080B50029C2
:1036C00001D1002002BD012801D0022802D100F062
:1036D00005F802BD00F02AF802BD000070B40B002E
:1036E000002111480068C0010FD4080070BC704769
:1036F0005D782D0225439C7826042E43DC78240631
:1037000034431B1D0460121F091D002AEDD0E02068
:1037100000060468002CFAD01C78042AE8D2047051
:103720005B1C491C521EF0E7FCED00E018B583B0AD
:103730000300140000930191029469460520ABBE7A
:1037400001221900201AFFF774FF04B010BD10B554
:103750000446E068A169884251D3218849F20203F6
:103760000B40022B08D008044CBF4FF400704FF4FC
:103770008440014321803BE001F4C042B2F5C04FD8
:1037800006D1A168884203D32046FFF78BFE78BBA1
:10379000208810F4406F02BF606804F14401884241
:1037A00017D14FF40070FFF721FD606030B904F1CC
:1037B00044006060E060401CA0600AE0218841F0A5
:1037C00040012180E060606100F500726068A260E5
:1037D000E0616068A1682061A161207841070AD595
:1037E00002220021204600F00CF810F1010F02D156
:1037F0004FF0FF3010BD208840F4C04020800020F2
:1038000010BD70B504460D461646AFF30080334632
:103810002A4600212046FFF79FFD05462046AFF3CC
:103820000080284670BD000018B401780A0627D52C
:103830001F4A13680021834203D1002442F821402B
:103840001BE05368012183421EBF0221936883421B
:10385000F3D0D368032183421EBF0421136983423E
:10386000EBD05369052183421EBF06219369834231
:103870001EBF0721D3698342DFD012BC00F01AB803
:10388000002101804FF0FF3200F14401C270C1609D
:103890004161C16100F1440300F1440200F13001D3
:1038A0004360026182610262416211BC70470000A4
:1038B0003C430020FFF7F0BC38B504000ED0207860
:1038C00010F0030F03D094F90300002809D5AFF3DB
:1038D00000802046FFF7A8FFAFF300804FF0FF30D5
:1038E00032BD2046FFF7DEFD0546AFF300802078AD
:1038F000410644BF6068FFF7DDFF0020606094F977
:103900000300022804D900F016F808B14FF0FF3583
:10391000E06B48B100F01BF808B14FF0FF35E06BE9
:10392000FFF7C8FF0020E0632046FFF77DFFAFF3FD
:103930000080284632BD1CB5020000926946022074
:10394000ABBE04001000FFF753FE200016BDE0B52B
:103950000090FDF78FFC019069460E20ABBE03B0CE
:1039600000BD00000E48016841F4700101600022B2
:103970000C49086840F0010008608A600B680A483A
:103980000A4A03400B604A6000200B68084A23F48F
:1039900080230B60C8604FF0006111607047000029
:1039A00088ED00E000380240FFFFF6FE10300024F2
:1039B00008ED00E000000000000000000102030428
:1039C0000607080938B50C46C5B22046AFF300809B
:1039D000E068A169884204D32046FFF7B8FE0028BA
:1039E0000FD4E068401CE06000F8015D208801050C
:1039F00003D440050BD50A2D09D12046FFF752FD0F
:103A000028B12046AFF300804FF0FF3032BD204692
:103A1000AFF30080284632BD38B50D4D0824286824
:103A200000281CBF017811F0030F05D090F9031096
:103A3000002958BFFFF740FF2D1D641EEFD1BDE8E0
:103A40003840002200214FF0FF30FFF773BD00BF68
:103A50003C4300207047FEE7FEE7FEE7FEE77047C5
:103A60007047704770470448FEF7F3B90348FFF703
:103A700026B80348FEF7EDB984410020C04100207C
:103A8000D044002010B5074979441831064C7C44D5
:103A9000163404E00A68081D114488470146A14213
:103AA000F8D110BD500000006C0000002A2A3D3DF6
:103AB0003D205374617274205369676E616C2054A9
:103AC0007269676765726564203D3D3D2A2A0A0078
:103AD0004EF68851CEF20001086840F4700008608C
:103AE000BFF34F8FBFF36F8F4FF00070E1EE100AFE
:103AF0007047000007D7FFFFC00100005C430020B3
:103B000000000000EFD5FFFFEC010000606D000039
:103B10000000002000F00DF8002801D0FFF7B2FFF0
:103B2000AFF300800020AFF30080FEF749FC00F007
:103B300002F80120704700F001B800000746FFF7C7
:103B40006BFF3846FEF744F9FBE738B504460D46EF
:103B5000284600F005F8A84218BF0024204632BDD0
:103B60000149FFF72FBF00BFAC420020014880474A
:103B700001480047653900087D3B0008AFF300802D
:103B8000FFF7A6FFFFF7C6FF0000000001020304D5
:103B900000002E004300FFF7FEBFFFF7FEBFFFF758
:103BA000FEBFFFF7FEBFFFF7FEBFFFF7FEBFFFF749
:103BB000FEBFFFF7FEBFFFF7FEBFFFF7FEBFFFF739
:103BC000FEBFFFF7FEBFFFF7FEBFFFF7FEBFFFF729
:103BD000FEBFFFF7FEBFFFF7FEBFFFF7FEBFFFF719
:103BE000FEBFFFF7FEBFFFF7FEBFFFF7FEBFFFF709
:103BF000FEBFFFF7FEBFFFF7FEBFFFF7FEBFFFF7F9
:103C0000FEBFFFF7FEBFFFF7FEBFFFF7FEBFFFF7E8
:103C1000FEBFFFF7FEBFFFF7FEBFFFF7FEBFFFF7D8
:103C2000FEBFFFF7FEBFFFF7FEBFFFF7FEBFFFF7C8
:103C3000FEBFFFF7FEBFFFF7FEBFFFF7FEBFFFF7B8
:103C4000FEBFFFF7FEBFFFF7FEBFFFF7FEBFFFF7A8
:103C5000FEBFFFF7FEBFFFF7FEBFFFF7FEBFFFF798
:103C6000FEBFFFF7FEBFFFF7FEBFFFF7FEBFFFF788
:103C7000FEBFFFF7FEBFFFF7FEBFFFF7FEBFFFF778
:103C8000FEBFFFF7FEBFFFF7FEBFFFF7FEBFFFF768
:103C9000FEBFFFF7FEBFFFF7FEBFFFF7FEBFFFF758
:103CA000FEBFFFF7FEBFFFF7FEBFFFF7FEBFFFF748
:103CB000FEBFFFF7FEBFFFF7FEBFFFF7FEBFFFF738
:103CC000FEBFFFF7FEBFFFF7FEBFFFF7FEBFFFF728
:103CD000FEBFFFF7FEBFFFF7FEBFFFF7FEBFFFF718
:103CE000FEBFFFF7FEBFFFF7FEBFFFF7FEBFFFF708
:103CF000FEBF0000C27E01227F01228001328101CD
:103D0000428201528301600D8282818180807F7FA7
:103D10007E7D7D7C7C7C7B01110C137D7D4AB00116
:103D20007F7F800171441009838384848485858426
:103D30008584830F2165127D421140137A7A051123
:103D40003D227D7A42803232806250017E7E7D014A
:103D50005159111B71491001858686052384838F73
:103D6000112B414C227B4C414D110141CAE0017F96
:103D7000807F015166414C1149328649538281D777
:103D80003195327A4C527C4C714350087E807D7B59
:103D90007E7D7E7B7D7E9012834120158788898B76
:103DA0008D8F919393908C857D77726F6F70717406
:103DB000757778011003797B7D7F8222101A8785C1
:103DC000837F7C78757372707172737576787A7D83
:103DD0008084878A8C8C8B89878479102182848661
:103DE000898B8C8E8F8F9091929495989B9D9F9D9F
:103DF000968C816F62584F4E525A656F7C83888CC7
:103E00002C10138C8D8D8D8B8780796F66605D5D36
:103E10005F676C717778797768227CA0127CB41028
:103E2000537D80868A8D90908F8F8D8E8E9091910C
:103E300094949597999DA2AAADAB9E8F7B5F4E42BD
:103E40003B4352667A8E9DA2A4A19B94918F8C8B4A
:103E5000867F73655A4F4A4E5561707D888D8F8C71
:103E6000857F78716C6A68686A6D727880878C91DA
:103E70009291908D8A88BB10368585888C939CA5FD
:103E8000AFBAC3C8CBB89A855A34261E273D617F86
:103E900094AAB0ABA5A199939490887B6D58453FA7
:103EA000404C627E96A3A799856C574D48515C643F
:103EB0006EED10B777818D99A2A29A907F726E6F86
:103EC00077828F969A9D9F9FA6AFB4BEC8D1D4C962
:103ED000A077571A08141C477499B0B5B9AC9C9DCB
:103EE0009995958775593F332B3C5B7A9BB1B8AE5A
:103EF0009C89715C564C474845454453657795A766
:103F0000ACA99C867268676A717E818386898F9A64
:103F1000AAB0B5B4AEA69EA3ACC0D5D39E6E4B00DE
:103F2000002240779FB7AE9A968D8AA4AAA08D658D
:103F300046262947628CA7A89E91848386948C6E1E
:103F40005A3110142D4C75949E9489877B838F86EB
:103F50007C6F615A657E96A4B1AB9D9A9A9DAAAF7B
:103F6000AAA7A0A3B3CBF1F1945E3C0000E000FE51
:103F70009B9B8379A2BDBFCDAF703A232C40698D46
:103F8000887B7B7D8EAAC1B8917054321E3937363A
:103F9000515A677A999F968E82625F6B6872787EBB
:103FA0007C879CA3A6B0AA9698989AA0A8A59DAD38
:103FB000BFD9FFFFB334330A004C7C5B5F6C7D9A42
:103FC000D0FFE09E7E4E384F6866454053669BD1D9
:103FD000D0B2967E707484783E12010F417A968634
:103FE00074737B8B9A8D6246455A7A95998B828C35
:103FF000A2B4B8A88D858E9DADB2A7A3B5D2FDFFA2
:10400000FF6500302109716405338DBDEBF0D69A50
:104010006989A17147310D1A62999C8D909EACBF40
:10402000C697543E443938423427477D8E8B8B8166
:10403000747C8D7D5F57626A7A8F908992ACB6B13D
:10404000AA9A868799A2A49F9EB4D3F2FFFFC41EAA
:104050002D9B4C0748260055C5B393A0B8C4C7C7CD
:10406000AC683E5B72553A424A5783A79D8896AC2E
:104070001C3DAA998360474C544C3937475E728285
:1040800089898F9DA49C8E8584899093908D919A27
:104090009D958A8582838687827F858B8B888F9486
:1040A0008E8589949389898C8985888B888281847F
:1040B000826703167D321E7C4E031E790A031003AD
:1040C00078767575760420047573737474720112B2
:1040D000740111141D29034E7AB6033DAF035D9C94
:1040E000033DE5031E84A1031801838181DF2E7E39
:1040F0006E041D950320027979797A024E7A9C0329
:104100007E7DBE04210D50027C7B7C7B03127D11E1
:104110002E7FA5035E7F8404438182582DCA043D0F
:10412000D40411575DF1032102414E4D86046D21E7
:104130000411012DCE044D42044169411E5281A457
:104140001145310331012283022283B231B62E831D
:10415000E8043DCD042D30051C0C807E807F817DE0
:10416000847254677F7A7E8E370430067978828035
:104170007C817A77D31001787C7D521C33848588CA
:10418000898E909599A1A6ADADB8B7BEB7BBAEA0CC
:10419000C4A89BA68C7F908F9290939696877F86DB
:1041A00084857D7E727875716C686A686C686767F3
:1041B0006C6D64031D6B04150E137F82A710037DC5
:1041C0007F7D7B76011436737476717772786E72A8
:1041D0007074736C7770756F746F6D776C6E746CD0
:1041E0007870767B7678807C767D78807B7C767C38
:1041F000747B7A777C76827F827E80817D79785924
:104200001E7753041151110C14017C79791714098C
:104210007A7A7C7B7E7C7A7F7D7A7D84127B07250F
:104220006010027C7F7E7B361280F71284DE17845A
:104230007FA424018483800C110515061E85F604D5
:104240003C078187888B8A8E8D8886FD04140277CF
:10425000757872FA115D167966159B1E7E710536AA
:1042600083D719211401797A7CFF159A2683071CBC
:104270000189868654051E8BF00424098C8C8A8B58
:104280008E8789898786875D102687888A888D8DA5
:10429000909494928F8885847F7A7471706E6D6C1F
:1042A0006C7172757879808486868789888B86861A
:1042B0008484AF180976777375727476797C7A7D09
:1042C0004D1C0284868887CC042401888485B2250D
:1042D000C4100182837E09141881807E7C857E80D3
:1042E0008682828785878D928B8A7E8986767D6C91
:1042F00070726E601C08726F757478828487878C08
:1043000056051A8C921008817978757471737072E1
:104310007558167DE318048581867E817B7E18039F
:10432000807C807E84F1140A7C817E7E807B7B7E13
:104330007B797A754C137A77E914058389888F8E97
:10434000918A081C097F78756F716E6E6A6E72743F
:104350001A0611E910128B8B8F908C8B85878281C6
:104360007E797B797F787B7D80839C11FF26850712
:10437000100C87868B8A8A888A8B8B8C87898A86A1
:1043800012100284808987481E845E031C1E7D777C
:104390007D797D7B8183888A8A8F8F8C87837D79E5
:1043A00076746E6B6A696F6F6E75787C7A83B70509
:1043B000140589838085837C7F5C15D61405797606
:1043C0007B787C797AAA14068482828582868480AE
:1043D000B11003867F877F82C6138484C91C06843C
:1043E00080857C837E7C7F0E032C0185797C8F0702
:1043F0001C027E838280DB06100F8C8D8983867E73
:104400007C73726D6F6F696E6E75767A167EE219C7
:104410000224067B7D7977767A7778D62C0D787AA8
:104420007A7F7A7F80797C827A7B80757E89031798
:104430007D798B1C12807D7A7E847787807B807E5D
:1044400076857C827C827E7987F7041C067E7C865A
:104450007D85898B8AD9061F90852E04140A7A7D62
:1044600073736C706F6D71756E7B0C15562C117BB0
:1044700080747F717E717278697C68806F7F757AD5
:104480007F7CCF03142A908092857E8B84848884DD
:104490008F8A97829196879785938B908A828B7B60
:1044A0008780838D87928A898B8788878B84878989
:1044B000858A472C128E8D8D8883827F7E777A71D4
:1044C000726A666C6E71757877E303140A847B8474
:1044D000787F777E79777F78824C29CF1C07877C1D
:1044E000867E7E82858384B403200381807A8A7AE3
:1044F000111804837A81778277AB11C434017782F3
:1045000079331D2E04101787757F7C76877B857B1A
:104510008E7C8F7E7F847D81827E78817F7C797D99
:10452000A616845924087F85817D80777D7B7F7CDA
:10453000061F72800A08141B807E857D897F797929
:104540007F877B8975877A817B887A897F828A7267
:1045500085798C778D2711782B89824611C81C03A9
:104560007B847D82787A031B8179411282A31C03AC
:104570007B7B7F7D827503140981827982788081BB
:104580007E7F79865114027A7D797E2E1801747DA2
:104590007C7C193B111C1D08082F7D77B203158008
:1045A00011151C017E777FB1081D20081F7E78BA87
:1045B0000810037E7A7A807B5818057D7A787D7A98
:1045C0007B7FC71C017E7B7A8E03197E1C047E7A5A
:1045D0007880797D2F0311B12C037E7D787E785D04
:1045E000051D69051B7F799C227CC71F7E806504A1
:1045F0001A801A167EC4158A2116115D137F7B124C
:1046000021051DC70410047C7E81817E7A0B2E80DB
:104610002C041D3E0411D71D63051677611C03721F
:1046200073767778FA051C117377747A7B7E847EB3
:104630007B71716B615E5B6069717ABC0313888307
:10464000261C107C7575706C6E7572727877727935
:104650007D797A808328091C1189888C8E8E9195AA
:104660009394949391938E8B8A85837D88031D37D1
:10467000041F7E7F34051F868901032C03868581F4
:10468000837E4203198711023E7322063B7C7DC460
:1046900019DD1D38053C04848783868586310A1E12
:1046A00080480619B51F7875100315123E82C60999
:1046B0002E839B0A12874F1E846A0411021D7B03FE
:1046C00022880821051D3704528903195B1C018DBE
:1046D0008C8DA9091A8E5610018B8B891F1D3E0ADD
:1046E0001D6C031D9203215B25981E8002041D8A08
:1046F000052D2E051E7BAF061DF1041F77774F0594
:104700001191119225832D540A3E7C560A210322D1
:104710008006310B3D3C0B21446E817F062DB60691
:104720005E8086061D87062D09076DD00A8F7E8064
:10473000970625A921583F7E7DC60611794D2D0784
:104740001C017A7A785D062E789D032D8F0A1279E6
:10475000011D2A061185416D9D980B1D3A05128891
:104760000120028989898A0110028B8B8B8A023190
:104770000321013289011122250C25173D7E0B6092
:104780000185868501528401110915492DB8073D1F
:10479000310C338284C1116A538180BC1A7E31117D
:1047A0000121A82D680B1279A315201F76741B0B0D
:1047B0002C0B6E6C6B6A676565646566686B6D640F
:1047C000051B7879CB19FF2684BB1DD6051682A759
:1047D0001C0A7E69737F889097959E9A9592B6057C
:1047E0001C0684817F7D79757D7772051C057C7838
:1047F000817E7D847ACB06140E8B858C8C72696FDA
:10480000637274706C696F6E7CF21F77758B031422
:10481000017579730D1D80031E7D520600FE8F8C7D
:104820008E9192979594969597959C9B9A9B9E9F17
:10483000A2A3AAB2BBC5DCC05C7449216F574E4924
:10484000505770B8AEADB1939096A5897767424C3A
:1048500064747A84807C94A898967443443A4B5646
:10486000636563878FA2B09A8F88868993958087C6
:104870008684959E96969BA0ABBFBDC5D6DDF05EA7
:104880002346002169455E78818CD6EDBBBE8554F8
:104890004E58573E524248859FB1B59E7D737A6A05
:1048A00069592F33405D75838E808C8D8B907E6D22
:1048B00063666F7A8E8F919693968D8076606D7910
:1048C0007987919192B5B8BADCDDE3FF7E003100C3
:1048D0000071646A999DAED6FFC799671E1B2C4E66
:1048E00055647A7EAAD7D6CB9E724A434537463E58
:1048F000517690ABA2886B585E5F656B6C70839647
:104900009FA69E908F9398917B66535A78939E9D15
:104910008C7C848D96A3A29AA3B6E3F4803E1C41BE
:104920002C0027818194998D94C0D6AD884C142297
:1049300049708E99948D9BAFB3A37F5035374F66E6
:104940006980858AA39F907649343E5578939892E2
:10495000918D9696908C7A7A8A8E90877367727D05
:1049600086988BD1071F717D1E071C459FAECCEC2E
:10497000F2AF3A1700004F8E8FB2B6A8B7C9A97828
:104980004D180E366795B5BAAEA7A0978963423029
:10499000364274989CB0A38D89796150403E4E791F
:1049A00099A4AFA0877F7C838A9898938B716F7648
:1049B00073777A93031C4484817B7B6F7B868DA302
:1049C000B0B7C5CEC68135260E116E979FC1B8A26D
:1049D000A7A680604E2C2E6686A9C5B49E917E71D6
:1049E000675D48344D648EBDBBAB87625859646BBC
:1049F00063677083A1ACA28C76758091A49A0A1C1F
:104A00003D6D7A877667544D6390B4AF9E825E6148
:104A10007479848C8C9BC3E3DDB9620C131E3C91CA
:104A2000A895A6B0A9ACA5754030345287ABACA20E
:104A3000978B838172564A536284A4A6A090807893
:104A400087041C066767738892939081B8081C508E
:104A50007F898B91999F9F947F7B725D5A53566D8E
:104A60008BA0A79D8A756B6A71757B8F9CB4CCD126
:104A7000C7A048081D3A4D88AA9DA9C0B89B845D6F
:104A80002C3351688DA7A39FA19885715A4449651D
:104A90007E92A29A9590877A635B5C677D8F9691F0
:104AA000898A8F061C417071788394999996918DAB
:104AB0007B62564C54748592948C8C847E7A6D6B98
:104AC000707E9DB1B8C1C0AD8848213D4D5289A3CB
:104AD00097B0BEA58B74533D4E646F859A9EA2A974
:104AE0009877665D4E58737A87290E2C25928476C6
:104AF00065636B6E748186889190857A7876797D0E
:104B0000858F8D8C90928A7F7C6E61696F778383AD
:104B1000858B8983D0091C3482929DA6B9BEB39936
:104B20005E2D4A5D4A6A8784A4C5BA947C70575743
:104B3000625B607D98A4A69F8A77786C57565F6CFD
:104B400082949C908D9486776F61616F7C82BD08A2
:104B50001C188D93877D787D817C7F898A8F9795BE
:104B6000826D6E6B6B7873717C828683BD041C2EA4
:104B7000848A8D9BA7B9BCA47A4C536F594C63723D
:104B800087AAB498878A8373685C56657B85848B13
:104B9000969490876F66686A6C6C747D8592928833
:104BA0000D081C03726F6E7078BC051D57091C013F
:104BB0008B86827A053D4E0B1E7C090C1E75200AE1
:104BC0001F7C83C2031C20868A8C9299A1B0B6A94F
:104BD0008F645B6E644B4B677B8D9F988E9CA79414
:104BE000786A65636A6C666E84C10E2C0B8F8F8841
:104BF00082776A696E6F6D6D76805C101C018781AB
:104C00007B640F1C0975767F83888E909395938BB8
:104C1000350A1C097B78717074716E71797D81E63B
:104C2000041E88CE081C1C94A0ACAFAB9F80727D84
:104C3000735D5052606F7B7F8193A29E958D8C8AAD
:104C40007F70615F6A8504101572818B8D8A898CF3
:104C50008A81746D6A6A68666A7078808082898EDB
:104C60004E1E89F20C1C07827C7F86807A838781A6
:104C700000091C027C78797504031C2971767E84F6
:104C8000878F989AA2B2BCB0A2958A877B6A5A563F
:104C90005D6262606475848B8E8F959B9B968C851C
:104CA000817B766C676866B30B1C016F7175870931
:104CB0003D26051D2D0A1C017C787A8F054C03804A
:104CC00083868488E20F1DAE081DAD0A1DB3061D44
:104CD0006A052D4F052E8521101D44051DAB0C11B5
:104CE000291DF8095DEB0B4E7DF40F5E7A5B061D06
:104CF000D9051DF3051D4F0B11271DD40A1DE40511
:104D00001D3A053D24061DA1071DF3053D7D052D1A
:104D1000F3051DC9073110100280818383051D8AA8
:104D2000053DD00C2DA4052D9E05210B11342D44DD
:104D3000062D53062D0B082D5A061139111A3DB7B1
:104D4000052D870615072D77113D82067DB00621BA
:104D50006E21AB2D2508410342810411793D0B0DD5
:104D60001135310121A321056E7ECD06110E1101F1
:104D70003D8F0D31A721F23101113F211E21BA7D56
:104D80000807427F1C41645D2A076280317120312F
:104D90003631018DBF114112828001814BF1020138
:104DA000C12941389D8107615F41A0311F7124F302
:104DB00009807F01412093808089737F8032414147
:104DC000A2805D7101F10155650541557280FC516C
:104DD0008E713DA11D2101511FF3077F80A9F301B1
:104DE0008080C451B2819AF6037F39B1B285615196
:104DF000814175628049C196F13E01516CE10181AA
:104E0000D7811D611451AE310185593101914AB5E7
:104E10001BE569110191F6D27F2CC11C7101C38081
:104E200080294101A12A63807F335106D19F61010E
:104E300062804C5D550A513D11011D740F2D0A030E
:104E40001D990A1C187E79583C4F5E68778793AC91
:104E5000C8BEB3AFBCC9C1AFA09898A0A4A0916CC4
:104E60000F1C7698A3AAAAA4A2A7A49F9D9B928395
:104E70007C6C4643533F32374D5F5D6C7E7E93AC16
:104E8000AAA4A0A9A58E8F88746F6B62554E605E30
:104E90005467777E8D989F99969E8F837E705F5F13
:104EA000636863758B9596AEC5D2570BB27C0007CD
:104EB0000A1D12133903369F856885BFD4AFAFAF83
:104EC00096A2A37B535C806F4D5F727852748A5DAB
:104ED000768A776D748A7562887D7245121C3D8A68
:104EE0009BB09EB1C4BABCC3C2B7AAB8B4A4B7AA97
:104EF000ACB6D1DBED5419EB8E0019292F151F2C00
:104F00000052A35B497FC4B3829B8B7E92763D2B7C
:104F1000566226254435696B495880A1775B780530
:104F20001CAC7762636D7F6B4F7791807F8C9EA006
:104F3000A3A39097A792817F878D8386919CB7C00A
:104F4000D6EDFFB92BF8EE133162482735410469DD
:104F5000BC6865B3EFC8A7CAB6A8B6804B547754EF
:104F6000193B5F6066777773A1A571749687625B62
:104F700061575F654F5A83897A88A7A9A1A69C9C2F
:104F8000A4937C7A847E68737B869297A6B8D0E3DC
:104F9000E7FFC543DBDF17155841152F351C80ADE2
:104FA0006F82D0EDC0B1C4AEA6965C43575E2D2093
:104FB0004D6467727393AE98958B928C69554E557C
:104FC0004F3B46586C74768EA2ADA9A4AFAAA094AC
:104FD00005081C4B6F62677275748195A3AFC0CCD6
:104FE000E6F3FFD357A6DA2F00404A1B263E328550
:104FF000B78590D6F2C6ADBBA99C824D3D52562CCA
:105000002A5A72798293A9ADA99E7D888358444318
:105010004942404A5978838198AFB4ACA6A6A0977C
:1050200085F5111C476A67647582828897A3AFB2C1
:10503000BAC4D4E4DAB75A83BD310941493A334995
:10504000518DB58695CAD6B498A095886E424255C2
:1050500054363F687B818596AAB18D7A83805F4103
:105060004647493F3C56707B7888A3A9A49BD81437
:105070001C05806F777A6B646C20071C1E81929DE3
:105080009EA0A2ADB6BABCC6D2AA4E86AE362358F2
:10509000473E5C515196AB8494BEBFA69D50151CF3
:1050A00024724E4D625A47566C7B8589868FAC8E32
:1050B0007979726B524A444E5F4C55758284899B54
:1050C000A1A5A293949788740D1E747F0F1C518321
:1050D0008A899199A8A0A1B1B4C1C2CCD09558A792
:1050E00096243E5A41475949609F9C7DA2C1B7A56D
:1050F000A1968E8C6E5058665348586B76817A7C98
:1051000093A28576827B715E51515A5D48557277C4
:105110007C7F919CA29D939B9B8E817C817B7275F1
:10512000737D6E131820969C9CA5ACB7B9CDD0CEDC
:10513000A36DA69B3C415C46445444558E8F7A96A1
:10514000B8B4ADA99F9B9D841E1C0C5D4C515B683F
:105150006F6C69819880778584480A1C085C69694E
:10516000505468706B737E81091C088A929E9385E7
:105170008A887D7E79DB091C31747784858E9499C9
:10518000A7B7C0C6C9B391A1AE705C7260525A563F
:105190004C697F7077939D9DA2A19DA4A28E848966
:1051A00083766E6A6A6D6A676E757C7ECF0A1DB5FE
:1051B000071F8288F70C1C10828E88898C8792903A
:1051C0008D8E959290968D909589AF081F8F870A46
:1051D000181D0F131D4A121DB4061DAF071F7A7745
:1051E000AD13300175737201137170041D17152D05
:1051F00019151F7575B20C3E76AE0C21011DBC0D44
:105200002DDB0E1DC7111E76CE0D11041DD00D1104
:10521000154E7A3F193D7F191D700F2107127B86AD
:105220001DA4074D0F0E31073DAA192DBB132D17D5
:10523000151D280D1D7D0E4F817B7B0E31012D5AD2
:10524000072C038280837F83C1071E81E8093E808B
:105250009A0E1E7DBF105E7F8F0E1E7F1D11100DDA
:1052600071608F795884817274696F74726E6EA2E6
:105270001C067B7975817A75747AEF111C05827B27
:1052800084887E878363131E8ABA091C0A8F9295CD
:105290009B9F9FA4A5A7ABB1A336031C25B0B695D1
:1052A000AAA3A29D99A6AAB3AEA3ADA1A9A18EA8B7
:1052B000A1AE9F948E938D7F7E787C7175706A7994
:1052C000816A7C73A2121C2C79738B7E7F767E722E
:1052D0006A5E55504044323B34443E3D4341555351
:1052E0005E575B5E5C63646A6E746D6F615E594DA0
:1052F000594B555B666C72121008857F746C72692D
:10530000786F707783F00D0D8993AAC1D8E1E4D24C
:10531000BB99714C280E0001F00605124D7094BA2D
:10532000E0F7FF01501AFEEFEDEBEBE6E6E7EBF4FA
:10533000F4F3F4F8FBF8F4F5F8F8F1F1F4F0F0F424
:10534000F9FA331C12E5C1EED08B7A8584696F5D62
:105350006E93958291BAB5A8A3F30B1C07876B6D6A
:10536000746B5C61687468051C0295A29995350D93
:105370001C1282726F7471646D75828B898EA0AC01
:10538000A4A1A4A6A19B43171C588C827E838B8F5B
:10539000889099A5A9B1BBC8DADADCBC8FACB0663D
:1053A000476E6D4F64696F9AAD98A4CECAB4B1AC24
:1053B0009D99815E5F6861535F747E888A91A3A422
:1053C000938E8C887164585960535159737D7F83D3
:1053D000919F9D9490949183757A7A76706D777B86
:1053E00078797E89F3101C378A9595969FB6BA9E78
:1053F0006E76A267264E5F484E5158809B7E7EABEC
:10540000AE9187877F77684E4F68604F5F7D848459
:10541000898F9C9E8D7B8380706060666163646E03
:105420007BAD1A1C0F939790888783827A6D727C6C
:1054300079727884867B79161C02827C7B801613B5
:105440001C228E9FA6AEB5CBAF7F97A65D3B6A5C54
:105450004056646384998793B9B392939784716833
:10546000545561555265200B1C038F969E978DCB2A
:105470000D2C08675E5F6160616A737A7FC11A1ED6
:1054800087DE0C1E75930C18036F707B7E806E1C7C
:105490000E877E7478787470777E888C9EA9B2B8F7
:1054A000A4D7151C1D7056595C515352647B8483DC
:1054B0008EA7A79D9699927E726B65625A5B686E05
:1054C000747C858FDB1A1F8E89F6151C03766E623D
:1054D0006871D3161F7D7D2815280D8D89827E84E5
:1054E0007D7A75777B7B77777B81E118027B797D8D
:1054F00076EB1E87B60D1C27ACB4A585899D7B482D
:10550000557A613D5A787A757F8E9EA290899696DB
:10551000776873715F58636E6E6D76838A847E8B55
:105520008E14031C067F726D71716F6C7219031CEF
:105530000287918F8D80161DDA11178284A81C01B5
:1055400089837F69121C0184848A26161C108C8929
:105550008F959AA8A1988F898A7B68636968595F3B
:1055600080161E7973101C038A8E93908469122E04
:1055700078FD1B1C0274777D82BD121F85847E100E
:105580001C01786465390E1C0365756F6A804A1BBF
:105590001C028B92938ED4121C047F777C817871CD
:1055A0002B141C057E878C88868A8B5A111C178BBE
:1055B0008F94989987818C8E72597A865852787B0D
:1055C000616385847B758A97D8101C0F8C81707BF2
:1055D000807A6F6B80776A6C7C806F7381ED0D1FB2
:1055E0008286F70B1C09827E7578827C73787F7CBB
:1055F0007712131E798F0B1D260C1D8C121E8258DC
:105600000D1DB50B1E7EE60B1E8197191C058D998D
:105610009E9D9D9D976B151C0C7976756D65696EC9
:10562000696A737B7A7D86EB111C02918F8B89CC22
:10563000191001807E791B1C02777576772E111F59
:105640007678E6161A74B91D6B042D471325091FC9
:10565000858627041C01837E7D34171DB10C1D3FF8
:105660000C1C038487858B8C9A131C0492908F8E5C
:105670008A846C041407736D73756B6873786D435B
:105680001C047B7E8A868185651C1C038386807B47
:105690007FF70D1D7404167C641DA10425A31D5AFB
:1056A0000C1D44181D63042C017B7E810A0C2DE91E
:1056B000111D8B0C2DB2041DD90C3DC9082DA21D46
:1056C0002D9E121E86BF1B1E869B041E818A1811EA
:1056D000432DDA0411922DCC083DA20C2DD9085E81
:1056E00080371E2DCF192DB2181E793A15527C51D4
:1056F00011013D70183D33092D630C1DBA0C2D901E
:105700000C1D4D121DC1121F8686751821383E7D55
:10571000881E2DF50C1D3805315411012DD4191D8D
:10572000A80D2123214A3D0F192DAD181D7E052DF1
:10573000241E2DC80C21244E81FD0C4D96135D4D69
:105740000D3D5C1321601D90182DC40D5F817EEB13
:10575000181DB205113A5D5A0D21414E819D1A6105
:10576000614E7BDD1A8D771E6DAE131DA814368237
:10577000DA310425192F8787BC1E2DCB1A15083D59
:10578000B01E5D8A1F11991134215842825B2D078A
:105790000D7D181F110411E41101217C2DBF1A2168
:1057A000E12D161B5E83C31A2DD813115C1DAD06A7
:1057B0004384845F15792DD014219A5D5C1B314898
:1057C000110135314E7D0C203DCA192D7D152DCF8F
:1057D0001B21225D620621014D271B45141D4B151F
:1057E0002E8A3D1519553DBF1F3DB11421F33131AE
:1057F00062812D110131BD21622DDF0E2DE40E25B8
:10580000FC352F5104112A5DDC1B81015DE61B9DD7
:105810001D20319FBF7C7C341C41C02D1F07217E81
:10582000611E737E7FB71101FD03940B419F4D46AE
:105830001C45F85163737C7C4521015D730B61014C
:10584000514B828001C15D811981CD42805E3D77DF
:105850000F2DDC15CDF41C515E5D100C2101913A29
:10586000213DB3818001711E453735F22D0E1B514C
:1058700068F102AD3101D28001B19F6D880CF10851
:10588000CD61C251C4F3017C7D0139954174B3806F
:10589000803B51C4F305818001B37F7FB5B1013DE9
:1058A0001C04C15B5D1C0D7107537F816E4281D565
:1058B00039464680D24D4817410165745931558F9C
:1058C000511381B021534D5D031DC5043F8081BA42
:1058D000041C028A8B8F93B7181C028A847F795428
:1058E000051F757458051C017B818288184281B997
:1058F0003D0B041D821B1D621D1C01757777FF1275
:105900001C0375767B8287451F2E846C111DCB0985
:105910001DD4181D72042E7BE21D11521D82051E1E
:10592000853A031D8A121C0F8B909BA09B8B786677
:105930005F606E7F878F8A827E47051F807F91150B
:105940002C05757E878B8D857D80061DE5042C04D6
:105950007B7A717175765A032D6A172C027C8081CF
:1059600085991E1D88111C057E77757374787C528D
:10597000172B8181F511AB1C06918F8E908B92991C
:105980009B490C1C08625964778799988D8274A68C
:105990001411D01C027C7A7C835B1D2D7A071E7B40
:1059A000E8161E83511720057A717373727B7B3E54
:1059B0001C0277797D7F6A132E82CD04111B1E781D
:1059C000761D1DE8051D801A1D0D1A1C0287898F82
:1059D00092B9191C109C9F96896D5857607A919EB8
:1059E0009E8C7E706D767BFF0A2C01787981661320
:1059F0001E753E071E8434201DCA171D3C191C0D40
:105A0000776C6B64697D839191887F7270707BB2D3
:105A1000132E89AF1D1D81081C03756D6E717A9759
:105A2000041C01827A7850083C148F97999AA1A19E
:105A30009B87635352608097A99F8C7D6A6D7379B1
:105A400067061C03898D8C8678181F1380893C1D7E
:105A50000E0B1C0D8283817B6A67696E80888D893D
:105A6000807A742C182D1F042DDE041DD6081F7893
:105A700073700B127AC01DA6061C047A7B848F9962
:105A8000A39E092C0B8E7359545E728C9CA0948536
:105A90007771441E157E1C02868A8984A01A1F769F
:105AA0007DC1041D86131D460B1D6B062DB5043DDF
:105AB000770B167F571DC8061E802C2315632C04F8
:105AC0007F7B756E717366181C1B7F7773747E877E
:105AD0008E9292919598999B8F7B6055607191A25F
