:020000040800F2
:10000000F0070020E5400008013800080338000828
:10001000053800080738000809380008000000000B
:100020000000000000000000000000000B38000885
:100030000D380008000000000F38000811380008D3
:100040000F41000813410008174100081B41000838
:100050001F41000823410008274100082B410008E8
:100060002F41000833410008374100083B41000898
:100070003F41000843410008474100084B41000848
:100080004F41000853410008574100085B410008F8
:100090005F41000863410008674100086B410008A8
:1000A0006F41000873410008774100087B41000858
:1000B000513800087F41000883410008874100084B
:1000C0008B4100088F4100089341000897410008C8
:1000D0009B4100089F410008A3410008A741000878
:1000E000AB410008AF410008B3410008B741000828
:1000F000BB410008BF410008C3410008C7410008D8
:10010000CB410008CF410008D3410008D741000887
:10011000DB410008DF410008E3410008C338000864
:10012000E7410008EB410008EF410008F3410008F7
:10013000F7410008FB410008FF41000803420008A6
:10014000074200080B4200080F4200081342000853
:10015000174200081B4200081F4200082342000803
:10016000274200082B4200082F42000833420008B3
:10017000374200083B4200083F42000800000000F0
:1001800043420008474200084B4200084F42000823
:1001900053420008574200085B4200085F420008D3
:1001A00063420008674200086B4200082DE9F04FE7
:1001B0000FF2A41CA1B0DCE90089CDE900892A9DD9
:1001C000DFF8DC9B049100248DF843500D944FF030
:1001D000FF38824616461F460FE0B3462C461BF8F2
:1001E000011B0498D0470028049000F0A2800D98CD
:1001F000401C641E0D90F2D176193078252808D164
:10020000002100220791089209910A920B910C9209
:100210000DE06A464146304600F0DAFF050001D1A4
:100220000D98A1E0D9D50125E6E741F0010116F8C6
:10023000010F2028F9D023280CD02B2804D02D28FA
:1002400005D0302809D076E041F00201EFE741F017
:100250000401ECE741F00801E9E741F01001E6E7AD
:100260000F9209E00F98484505DA00EB800402EB95
:100270004402303A0F92761C3278A2F130000A28FC
:10028000F0D330782E2818BFCDF8388022D116F858
:10029000010F2A2807D138683860761C50F8042BE3
:1002A00038600E9216E02D280CBF761C002000222C
:1002B0000E920AE040B90E9A4A4505DA02EB820432
:1002C00003EB4403303B0E93761C3378A3F13002EA
:1002D0000A2AEFD3ADF8401021A0317800F082FF58
:1002E00008B116F8010B8DF842009DF8420068280D
:1002F00004D1307868280AD1622105E06C2804BF57
:1003000030786C2803D171218DF84210761C12A828
:1003100006903A4616F8013B02A9504600F064F8F0
:1003200038B912AA02A9504600F0C8F900287FF592
:1003300064AF404618E02A2892D13A683A6052F8F1
:10034000040B3A6000280F9003D540420F9041F013
:100350000401761C95E7000000000000000000008A
:10036000686A6C747A4C000021B0BDE8F08F622896
:1003700020D0682811D06A2803D06C2827D0712893
:1003800025D10868C01D20F007000860D0E90023CF
:1003900008300860194610467047002A0A680A604B
:1003A000106803D0121D0A6000B217E0121D0A6027
:1003B00080B217E0002A0A680A60106803D0121D94
:1003C0000A6040B20AE0121D0A60C0B20AE0002AC8
:1003D0000A680A60106803D0121D0A60C1177047CE
:1003E000121D0A60002170477CB50D4611461C465F
:1003F0002E69B4F1250200F04F811C3A00F0848090
:10040000121F022A40F280800E3A00F00981521F2A
:1004100059D0093A78D0921E16D0521E35D0521EAD
:10042000022A71D9121F30D0521F00F09880521E3C
:1004300049D0521E00F0E280D21E00F0FF80921ED2
:1004400041D0D21E3FD02DE195F83A406C2C09D016
:100450006869421C6A610A680A6052F8043B0A60D3
:10046000335429E10A680A6052F8043B0A60009399
:10047000002201924FF0FF332B636A46294600F0B9
:1004800098F9002840F1188103E195F83A0001221B
:10049000FFF76DFFC5E90001002904D56869411C1B
:1004A00069612D220DE0288F810704D56869411C00
:1004B00069612B2205E0C00721D56869411C69618B
:1004C000202232541BE095F83A000022FFF74FFF3C
:1004D000C5E9000195F83800010710D5D5E90023DA
:1004E000002B08BF002A0AD044F02000782806D14B
:1004F000686930213154401C421C6A6134542146E1
:1005000068693044E86087E00868C01D20F0070093
:100510000860D0E9002308300860C5E90023D5E968
:100520000001C80F04D06869411C69612D220DE0EB
:10053000288F810704D56869411C69612B2205E079
:10054000C00704D56869411C69612022325468697A
:100550003044E8602146284600F036FAACE005F168
:100560003A02507820B14FF0FF340FF6043074E0B7
:100570001078622808D0682824D06A2812D06C2805
:100580002ED071280ED02BE00A680A6052F8040BB6
:100590000A6020B94FF0FF340FF6EC205DE0E96A05
:1005A000017089E00A680A6052F8040B0A6020B9F9
:1005B0004FF0FF340FF6D0204FE0EA6AD317C0E9BE
:1005C000002379E00A680A6052F8040B0A6020B937
:1005D0004FF0FF340FF6B0203FE0E96A01806BE096
:1005E0000A680A6052F8040B0A6020B94FF0FF3421
:1005F0000FF6942031E0E96A01605DE00A680A6064
:1006000052F8040B0A60002120F0000221F0FF33B1
:10061000C5E90023EE607821284600F02DF94BE073
:100620006C2285F83A200B680B6053F8042B0B60A2
:1006300052BB4FF0FF340FF684200EE095F83A20BD
:100640006C2AF0D00868086050F8044B0860EC6031
:100650003CB94FF0FF340FF6482000F0EBFD201AB4
:1006600076BD2E6B002E04D5204600F003FE044616
:1006700008E032460021204600F026FE002814BF84
:10068000041B3446AC6117E0294600F092F80028BC
:1006900012D54FF0FF3076BD6869411C6961252293
:1006A000325409E06969481C6861252272542100AE
:1006B00002D0431C6B613454002076BD2DE9F0411B
:1006C0000E4605469046726B7069316AB46A121A1A
:1006D000B069521A716A121AF069521A121A96F80F
:1006E0003800141B41070DD4002C0BDD2746B068E1
:1006F0002021A8470028B06057D0F06A401C7F1E18
:10070000F062F4D1736942463146284600F098FC05
:1007100000284AD1376A002F0ADDB0683021A84787
:100720000028B06041D0F06A401C7F1EF062F4D116
:10073000B369F2683146284600F082FCA8BB776AAC
:10074000002F09DDB0683021A847B06068B3F06AB7
:10075000401C7F1EF062F5D1F068B169F369421860
:100760003146284600F06CFCF8B9B76A002F09DD65
:10077000B0683021A847B060B8B1F06A401C7F1E55
:10078000F062F5D196F8380041070BD5002C09DD51
:10079000B0682021A847B06038B1F06A401C641EE0
:1007A000F062F5D10020BDE8F0814FF0FF30BDE8E8
:1007B000F0812DE9F8470D46A3B02F6B002F0646B8
:1007C000904648BF6FF000470FF60C1400F0A8FDEC
:1007D000D4E90023696B4018CDE90123812828BFA3
:1007E0004FF0FF3042D20024002F33DDD8F8001044
:1007F00001AA684600F0EEFC8146B9F1000F38D43A
:10080000D8F8000010B9B9F1010932D44F4521DB05
:100810006869484481280AD30021696303AA2946EC
:100820003046FFF74BFF040014D40020686103AB8F
:10083000D5F814A04A46694603EB0A0000F076FD9D
:10084000CA44C5F814A058F8040B002818BFA7EB39
:100850000907C9D14CB903AA29463046FFF72EFF34
:10086000044614B9002068616863204624B0BDE8DE
:10087000F0874FF0FF34F8E72DE9FC4307466F2976
:100880003E6908BF082405D041F02000782814BF35
:100890000A2410243C25D7E90023642918BF6929BC
:1008A0009046994605D1002B03D5D8F1000869EB95
:1008B0004909B9F1000F08BFB8F1000F1FD1386B1B
:1008C000E8B9082C4CD197F83800010748D53020FA
:1008D0003B2586F83B0043E000280ED597F838000A
:1008E00000F01400102808D17B6B7969386A5B1A14
:1008F0001B1A9A1A002AC8BF3A62BDE8F3838DF822
:100900000010404649462246E31700F063FD3032AE
:10091000D0B26D1E3A28019504DB9DF80000A0F1CD
:1009200051018A187255404649462246E31700F0A5
:1009300051FD80465FEA010908BFB8F1000F03D0FE
:10094000F86871198842DCD3082C09D197F838006F
:10095000010705D5705D302802D06D1E302070551E
:10096000C5F13C02BA617119F960386B8242B3DAA1
:10097000821A3A624FF6EF70398F01403987BDE82D
:10098000F3832DE9D04306460F4614464FF0000886
:10099000DFF8109412E0E00707D542464B46304698
:1009A000394600F09BFD06460F4640464946424602
:1009B0004B4600F093FD641080468946002CEAD136
:1009C00030463946BDE8D0832DE9F84F05468A46C2
:1009D0004AF020048EB0D5E90089612C02AE09D01E
:1009E000286B002848BF062003D408BF672C01D11C
:1009F00001202863D5E900014A005215521C0DD18F
:100A00000B030BD0AAF1610103201A29A86102D2BD
:100A10000FF2CC6110E00FF2CC610DE04A005215EC
:100A2000521C0ED10B030CD1AAF1610103201A292B
:100A3000A86116D30FF2B461E868032200F076FCD7
:100A4000C0E1CDE90C01DDE90C2323F00043B3F54F
:100A5000801F0DD20027002B08BF002A019703D169
:100A600011E00FF28461E7E701AA00F009FE0AE055
:100A7000CD48CE4900EB1350DDE90C2301900B402B
:100A8000CB4910461943C5E90001612C0DD1E86836
:100A900030210170821CBAF1610FEA600CBF78212D
:100AA000582141706869801C6861D5E90001CDE971
:100AB0000C01DDE90C2333F0004104BF00280023C2
:100AC00000F04881612C40F0A080286B4946002846
:100AD0004CBF4FF0210B00F1010B404600220023D8
:100AE000DDE90C8900F004FE01990BF1010738BF24
:100AF00089F00049091F002F01918DF808200DF1A0
:100B0000090040F33581A94900910646404649460F
:100B10000022002300F004FE80F029814800400DEF
:100B200000F11C0211D0002A0FDD40F2FF739A423F
:100B300005DBA04909F000400143002011E0009BC3
:100B4000194041EA025140460BE028F0000039F01C
:100B5000004108BF00280FBF49461C22494600F04B
:100B6000F7FD8046894600F091FEFF1F002F0446E6
:100B700009DD00F0A9FE02460B464046494600F05A
:100B8000B5FE80468946F01D072104E004F00F02FF
:100B900000F8012D2411002C01DD491EF6D5491E57
:100BA0005CBF002200F8012DF9D5DCE000201946D9
:100BB00002AA0A4400E05B1E12F80149491E844261
:100BC000F9D00F2804D10DF10900425C521C4254A7
:100BD000002904D50198001D02AE5B1C0190581E2F
:100BE0000CD43118AAF13A040A783032D7B23A2F2D
:100BF000A8BFA218401E01F80129F5D5286B0028CE
:100C000040F1A780591E2963A3E001996A4A47F27F
:100C10009750414391FBF2F2019229F00046D2F144
:100C2000070204DD40463146FFF7ABFE0AE05242C0
:100C300000206249FFF7A5FE02460B4640463146BA
:100C400000F0C6FE8046662C286B06BF019F0A375F
:100C500006273F18142FC8BF142730208DF808002E
:100C600089460DF1090000E03046002F34DD0646CC
:100C70004046494600F0D0FF01460A4606F1080307
:100C800004200A26B2FBF6F606EB860EA2EB4E0215
:100C9000303203F8012C0A22B6FBF2F202EB820E8C
:100CA000A6EB4E063036401E03F8026DE9D1083F30
:100CB000002F03F10806D7DD084600F0C1FF024609
:100CC0000B464046494600F011FE00223C4B00F026
:100CD00005FC80468946CBE70DF10901401A0DF16C
:100CE000090604E00199491E401E0191761C3178E5
:100CF0003029F7D0662C02D10199491C03E0652CFC
:100D00000CBF012100212B6BCB189842B8BF431EAA
:100D1000002B1ED4834204DAF05C3528A8BF3920AA
:100D200000DA30201946721E02EB010800E05B1E5B
:100D300018F80199491E8145F9D0392802D1705C13
:100D4000401C7054002904D50198401C16465B1CB9
:100D50000190019800B200901BB2324651462846DD
:100D600000F034F82EE0C61D002F3FF7CFAE30461E
:100D70000DF10901401A03465845C8BF5B46002BD8
:100D80000DF109063FF53AAF8342BFF60FAF0DF103
:100D90000900C15C07297FF709AF0F2007E70000B2
:100DA000CBCCCC0C0000244002FCFFFFFFFF0F80E7
:100DB0000000E03F0000F07FA08601000000F03F4F
:100DC00084D797410FB0BDE8F08F00002DE9F847B8
:100DD00083B006468A461746984600F0FDF9B8F1FA
:100DE000000F406A356B90F8009002DC4FF001086C
:100DF000BFA74AF02000BDF93040662808BF641C38
:100E000015D0672840F0848014F1040FC0F286806A
:100E1000AC4280F2838096F83800641C010702D44B
:100E2000A845B8BF454620B22D1A48BF00250FFA85
:100E300084FAF068B169BAF1000F25DC4A1C30234E
:100E40004354002D03DC96F83800010703D5F06801
:100E500000F80290521C15EB0A0FB8BF6C4220B28A
:100E6000441941424445B8BFA046B26171620FFACD
:100E700088F5F561F068B3692A463946184400F0F0
:100E800055FA641BB462C4E022B29045084417DAF4
:100E90004246394600F04AFAB0694044B061AAEBD4
:100EA0000801002D716203DC96F838100A0705D599
:100EB000F16801F80090F069401CF061B562A8E0AB
:100EC000394600F033FAB069002D5044A8EB04080D
:100ED00003DC96F838100A0703D5F16801F8009092
:100EE000401CB0610FFA88F08542F368B069B8BF62
:100EF000A8460FFA88F207EB0A01184400F016FA28
:100F0000B1690FFA88F00144B161281A706280E07B
:100F1000BAF1610F14D14FF0700A16E0A84504DA57
:100F200096F838100A0758BF45466D1E48BF002581
:100F3000BAF1670F14BF4FF0450A4FF0650A04E09D
:100F4000BAF1410F08BF4FF0500AB169F368481C6D
:100F5000B061002D17F8012B5A5403DC96F83810B5
:100F60000A071BD5F168431CB36101F80090002DFE
:100F700014DDA8F101080FFA88F039468542F768B8
:100F8000B8BFA8460FFA88F2F81800F0CFF9B06998
:100F90000FFA88F108446D1AB0617562F068B169A2
:100FA0000844002C80F800A003D42B224270811C3E
:100FB00003E02D2141706442811C00206A460AE052
:100FC00023460A2493FBF4F404EB8405A3EB4503C6
:100FD00002F8013B401C24B2002CF1DC012806DCA5
:100FE0004AF02002652A04BF302201F8012B48B9DB
:100FF000302001F8010B07E0401E1DF800303033AF
:1010000001F8013B0028F7DCF268B0691044091AC6
:10101000F16196F8380000F0140010280DD17269C3
:10102000B169706A8A18F1698218B06A8A188218E0
:10103000706B8242BCBF821A326204B0BDE8F08796
:10104000F8B505460E4617461C46002074B117F841
:10105000011BB068A847B06030B1F06A401CF06274
:101060000020641EF3D1F2BD4FF0FF30F2BD00004E
:101070007072696E74665F733A20256E20646973BE
:10108000616C6C6F776564007072696E74663A208B
:1010900062616420256E20617267756D656E7400F3
:1010A0007072696E74665F733A20626164202573A2
:1010B00020617267756D656E740000007072696EF4
:1010C00074665F733A2062616420256C73206172DC
:1010D00067756D656E740000000000000000000080
:1010E0006E616E004E414E00696E6600494E4600CC
:1010F0003000F0B40246106895681318506803EB8E
:101100005004C0071DD54D441BE013F8017B05F8C2
:10111000017B491EF9D1A0B1B60813F8011B06F0F6
:101120000306032E08BF13F8016B01EB06214942A9
:10113000801C294405D011F8016B05F8016B401E95
:10114000F9D1A3420ED013F8016B16F0030104BFCE
:1011500013F8011BC91C30090F28DAD113F8010B51
:101160000F30D6E7F0BC02F10C0070471B48704707
:1011700070B45368D418042B09DA41B1057804F827
:10118000015B10F8016B16B15B1C491EF3E753605D
:1011900070BC704738B514461D4661B1FFF7E8FFD3
:1011A00061686A6B204690476FF00102811A02D095
:1011B000491E01D001E003E005E00021616032BD7D
:1011C0006FF0010032BD4FF0FF3032BDDA6B1047D7
:1011D000024BDFE7014BF9E7014870474C00002064
:1011E00014000020C9B202788A421AB11CBF10F85C
:1011F000012FF9E718BF0020704730B4002513E035
:1012000050F8042BD30744BFA9F101039A18091F12
:10121000042942F8045BFAD213468C0744BF1580B8
:101220009B1CC90748BF1D7050F8041B0029E7D15B
:1012300030BC704780B500B906A005490B681BB1EA
:1012400022220021984701E000F007FD222002BD84
:10125000E4030020636F6E73747261696E742068BA
:10126000616E646C65723A20626164206D657373AF
:101270006167650000F10103810704D010F8011BCC
:10128000820781B1FAD10268A2F10131914311F0D4
:10129000803104BF50F8042FF6E709BAB1FA81F1A2
:1012A00000EBD100401CC01A7047B1F5807F02D31B
:1012B0004FF0FF3070470170012070470078401EEA
:1012C0008041C043C00F7047C9B2830706D0521E89
:1012D00022D310F8013B9942F7D11FE0083A13D30B
:1012E00002F1040241EA012141EA014150F8043BC4
:1012F000121F21BF4B40A3F1013C2CEA030C1CF050
:10130000803FF3D0C9B2001F083210F8013B521ED3
:1013100028BF91EA030FF8D818BF0120401E70477C
:1013200080B5FFF723FF006C02BD000062B38B079E
:1013300008D0521E11F8013B00F8013B00F0248058
:101340008B07F6D1830740F0208000BF103A07D307
:1013500030B4B1E83810103AA0E83810F9D230BCF7
:10136000530724BFB1E80810A0E8081044BF51F8A3
:10137000043B40F8043BD20724BF31F8022B20F88D
:10138000022B44BF0B7803707047121F17D35B000A
:1013900009D151F8043B20F8023B1B0C121F20F826
:1013A000023BF6D20BE051F8043B00F8013B1B0A6C
:1013B00020F8023B1B0C121F00F8013BF3D238BF90
:1013C000121D521E24BF11F8013B00F8013BF8D852
:1013D00070470000D3BBD9B1B2F5803F5BD2022A7F
:1013E0001ED98C46B1FBF2F102FB11C31B0443EA88
:1013F0001043B3FBF2FC02FB1C3380B240EA034310
:10140000B3FBF2F002FB103240EA0C4000237047BD
:10141000022A05D98446B0FBF2F002FB10C27047E5
:101420004AB105D100F0010249085FEA3000704777
:1014300000220023704700F013BC0B0002000021C3
:1014400000207047F7D3002200237047904271EBD1
:10145000030CF2D370B5B1FA81F4B3FA83F52C1B07
:10146000A340C4F1200532FA05F63343A2405FF0F1
:101470000046E64002E05B085FEA3202841A71EB44
:10148000030524BF204629467641F4D302000B0011
:101490003000002170BD70B5B1FA81F4B2FA82F566
:1014A000C4F120046419B4F12006DAD3B2405FF02D
:1014B0000044F440002502E052085FEA3303C61AF4
:1014C00071EB020E24BF3046714664416D41F3D387
:1014D00002000B002000290070BD0000B0B581EAB9
:1014E000030C0CF0004C40F2FF7515EA11541DBFBF
:1014F00015EA1357AC42AF4239E0E41923EA4553E9
:1015000043F48013C90241F0004141EA505EC70232
:101510001100A7FB020200284FF00000EEFB0120A3
:101520004FF00001E3FB072118BF42F00102401811
:1015300000214941E3FB0E01A4F580640F0302D2B0
:1015400052004041494154F101046CDD470872F1F9
:10155000004250F1000051EB0451A1F580115CBF35
:1015600041EA0C01B0BD4CEA05510020B0BD05EACE
:101570001357AC4214BFAF4241E050EA410E1CBFCA
:1015800052EA430E02E061460020B0BD24423C44D2
:101590001BD15FEA070EF6D0090302BF0146002007
:1015A000AEF1140EB1FA81F7AEEB070401FA07FEB3
:1015B0000C37C7F1200100FA07F7C8404EEA000EC9
:1015C00023EA455343F48013A2E733F00043B3FA10
:1015D00083F704BFB2FA82FE77440B3FE41BB7F1F6
:1015E000200E2FBF02FA0EF3BB40C7F1200E22FAE5
:1015F0000EFE38BF43EA0E03BA40641C82E750EA8D
:10160000410E14BF52EA430E6FF000014FF4001771
:1016100017EB430F8ABF194617EB410FB5E74CEAAA
:1016200005510020B0BDD4F10104B4F120070FDA58
:10163000C4F12007520828BF42F0010210FA07F552
:1016400001FA07F7E1BF2A43E0403843E1400FE0E9
:10165000352C98DCC7F1200452EA400220FA07F248
:1016600018BF42F0010231FA07F0A1400A430021FD
:1016700072F1004250F1000051EB0C01B0BD0000CE
:1016800010B5144600F002F8226010BDC1F30A53F1
:1016900043B14A0012F5001F28D2A3F2FE32A1EB9B
:1016A0000251704750EA410C20D001F0004C31EA61
:1016B0000C01B1FA81F204BFB0FA80F3D2180B3AF0
:1016C000B2F120032CBF00FA03F1914041EA0C0172
:1016D0003EBFC2F1200C20FA0CF319439040524255
:1016E00040F2FD33D21A01EB0351704700227047DC
:1016F0004FF4001C1CEB410F94BF1CEB430F09E09F
:1017000041EA030C50EA4C0C52EA0C0C03D2994209
:1017100008BF9042704714BF8B428242704700005E
:101720004FF4001C1CEB410F94BF1CEB430F09E06E
:1017300041EA030C50EA4C0C52EA0C0C03D28B42E7
:1017400008BF8242704714BF994290427047000020
:10175000124254D440F2FF7C1CEA11530FD063456F
:1017600031D09B1863453CBF01EB0251704701F03B
:10177000004141EA0C510020AFF30080704750EA6D
:10178000410320D001F0004C91EA0C011CD0B1FAC9
:1017900081F30B3B9A420DD9D21A994051EA0C01C0
:1017A000C3F1200C20FA0CFC61449840531C40F219
:1017B000FF7CD7E7914041EA0C01C2F1200C20FAEE
:1017C0000CF3194390407047B0FA80F31533202B87
:1017D000E0D3202AEED3203A203B9A4209D9D21AEC
:1017E00000FA03F141EA0C010020531C40F2FF7C97
:1017F000B8E700FA02F141EA0C01002070475242BA
:1018000040F2FF7C1CEA11530DD06345DBD0B2EBF4
:10181000030C3CBFA1EB025170470CF1010221EA1D
:10182000035141F4801150EA410CCCD001F0004C3E
:10183000352A27DC30B481EA0C01B2F1200309DA41
:10184000C2F12003044601FA03F5D0402843D140F9
:101850009C400CE0C3F12002450020FA03F418BFBD
:1018600044F0010421FA03F091400C43002174F18B
:10187000004550F1000051EB0C01244230BC7FF4D4
:101880007BAF70476146002076E70000C1F30A5342
:1018900040F2FE329B1A14DDD3F120034FEAE172CD
:1018A00008DDC90241EA505141F00040D84080189B
:1018B0005040704703F2E13010B1D24382F0004053
:1018C0007047002070470000C11768B14840401AB7
:1018D000B0FA80F29040D21CC907C2F5846241EA96
:1018E000025202EBD02140057047000070B44FF067
:1018F000004591EA030F40F1B5816B40841A71EB0A
:10190000030603D2001BB141121973414FF4001CAE
:101910001CEB410F34BF7CEB430442E00C0DA4EB05
:101920001356352E4FDC45EAC323DB0A45EAC121B5
:10193000C912B6F120050DDD63FA05F6EB4086EA23
:101940000305124218BF45F00105C01851F100010E
:101950000CD213E062FA06F5F2405540F3415A40CA
:10196000B340F3405A408018594107D349085FEA11
:1019700030005FEA350528BF45F0010501F580110B
:10198000420875F1004250F1000041EB04514E0055
:1019900016F5001F70BC38BF70470020090D0905FF
:1019A00070471CEB410F10D252EA43060BD0BCEB40
:1019B000410F05D80C0DAB43661E342EB6DD02E098
:1019C000AB438018594170BC704770BC7047000031
:1019D000F0B540F2FF7581EA030C0CF0004C15EAFB
:1019E00011541DBF15EA1357AC42AF42E5E0BC41AC
:1019F000C1F31301C3F31303801A994143F4801315
:101A000004D2641E4000494180185941C90241EA8C
:101A10005051B1FBF3F603FB1611A2FB0675D7EB91
:101A2000C020A94102D2761E80185941C90241EA5C
:101A30005051B1FBF3FE03FB1E11A2FB0E75D7EB59
:101A4000C020A94103D2AEF1010E8018594189028C
:101A500041EA9051760546EA8E2EB1FBF3F603FB80
:101A60001611A2FB0675D7EB8020A94102D2761E83
:101A700080185941C90241EA50514EEA060EB1FBA5
:101A8000F3F603FB1611A2FB0675D7EBC020A941A4
:101A900002D2761E80185941C90241EA5051B1FB69
:101AA000F3F703FB1711A2FB0735D3EBC020A941C5
:101AB00067F100070CBF004247F0010766F3D52726
:101AC0004FEA1E31B80814F5806412DDBD0775F1C8
:101AD000004250EB0E5051EB045111F5801F5CBFDA
:101AE00041EA0C01F0BD4CF07F6141F0E041002083
:101AF000F0BDBD076D0840EA0E5041F48011D4F1ED
:101B00000104B4F120060ADAC4F120060200E04024
:101B100001FA06F3E1401843B24015430EE0342CBD
:101B200013DCC6F1200445EA40056D0820FA06F2F0
:101B3000154321FA06F0A1400D43002175F1004242
:101B400050F1000051EB0C01F0BD00205FEA0C01E8
:101B5000F0BDCFB992185B41B3FA83F704BFB2FA74
:101B600082F6BF190B3FB7F120062FBF02FA06F32A
:101B7000BB40C7F1200622FA06F638BF3343BA400D
:101B80001CB1E419641E33E77F4231F00041B1FA21
:101B900081F404BFB0FA80F6A4190B3CB4F120061E
:101BA0002FBF00FA06F1A140C4F1200620FA06F684
:101BB00038BF3143A0403C1B1AE7AC421ABF05EACC
:101BC0001357AF4212E050EA41061CBF52EA4306E7
:101BD000BFE750EA4107304661461CBF41EA055164
:101BE000F0BD52EA430C08BFC143F0BD00204FF4E2
:101BF000001616EB410F98BF16EB430F08BF16EB0C
:101C0000410F24BFC14305E016EB430F0CBF6146F3
:101C10004CEA0551F0BD0000400D491840EA812012
:101C20000CD2490DA1F58061491C40F0004005DB54
:101C3000D1F11F0154BFC840C01770470020704742
:101C4000014648B1B0FA80F18840C91CC1F58461F1
:101C5000090501EBD02140057047012000F0B8B81C
:101C600070470000841A71EB030604D26E40001B1B
:101C7000B141121973414FF4001C1CEB410F34BFEA
:101C80007CEB430683E00C0DA4EB1356362E00F3D9
:101C90007C80012E45EAC32341DC43EA525312BF44
:101CA000D20292025B08240545EAC12141EA505163
:101CB000D2EBC020994125D407D1B0FA80F610FAB2
:101CC00006F162D00020203608E0B1FA81F6B1407A
:101CD000C6F1200220FA02F21143B0404FEAF47438
:101CE000B4EB465434F001064FEA74040AD8D6F532
:101CF0000016760D04F00044F04061FA06F2504000
:101D0000F1404840C00A40EA415021F0004128BF5C
:101D10005FEA500550F1000044EBD12135E0DB0AC9
:101D200045EAC121C90AB6F120050EDD42EA0242A8
:101D3000120CC5F1200603FA06F6EB4042EA06054E
:101D40006D42984161F100010DE062FA06F5F24042
:101D5000554063FA06FC82EA0C02F3405A406D4299
:101D6000904161EB030111F4801F05D1641E6205EF
:101D700002D06D004041494121F48011430875F1C2
:101D8000004350F1000041EB045170BC70471CEB64
:101D9000410F15D223F0004352EA43060BD04FEA1D
:101DA0004C0CBCEB410F04D80C0D661E342EB7DD75
:101DB000EBE7801A994150EA410608BF0021E4E7A9
:101DC00008BF1CEB430F28BF6FF00001DDE70000E8
:101DD00080B5AFF30080024A11001820ABBEFBE7CC
:101DE000260002002DE9F04F89B000F07DFB00F0E5
:101DF000F3F800F03EF90FF294600FF2B0660FF2C4
:101E00009C69DFF8B485DFF8B475DFF8B4A5DFF8B6
:101E1000B4B5D0E90045CDE9004502A8102100F095
:101E20007DFBDFF8A445DFF8A4554FF0804020602B
:101E300000214FF0FF30E0606160A1602161204629
:101E400000F0E0FB0021009101912046694600F07E
:101E5000E3FE0A2102910122039200210491002253
:101E6000059202A9204600F08FFC0FF228601C2189
:101E7000D0E90023CDE9002302A800F04FFB0020A9
:101E80002064002140F6B830A0646164E164E56339
:101E900004F13C0000F073FB00210091019104F17A
:101EA0003C00694600F0B8FE6021029100220392D6
:101EB0000492069202A904F13C0000F0DDFC04F15A
:101EC0003C0000F031FF0021204600F0B0FB002173
:101ED00004F13C0000F060FB3EE000F079F838E0EF
:101EE00000F031F9082100F074F80028F8D0002241
:101EF00000F063F8304600F04DFF0FF2C45000F0E0
:101F000049FF082100F065F8012804BF002068633C
:101F10000FF2BC5000F03EFF052038604EF6602105
:101F200000F045F8082401224FF4004100F047F882
:101F30004FF4FA7000F042FF00224FF4004100F02D
:101F40003EF84FF4FA7000F039FF641EEBD100F058
:101F500039F8642000F032FF00F03AF80128BCD1D3
:101F6000504600F017FF0520386048F6A04100F009
:101F70001EF8052401224FF4005100F020F84FF420
:101F80007A7000F01BFF00224FF4005100F017F8A8
:101F90004FF47A7000F012FF641EEBD100F012F8DB
:101FA000484600F0F7FE012200F007F89AE7796052
:101FB0000022BA600720386070474FF480414046E5
:101FC00000F0F2BF002038607860B8603860704779
:101FD0000421584600F0E2BF80B592B006A8302137
:101FE00000F09CFA01A8142100F098FA002000905B
:101FF0004FF48033DFF8D803016841F0805101606D
:102000000021006800F0805000900098DFF8C403C1
:102010000091026842F4404202600122006800F42C
:102020004040009006A80099069202214FF48002D9
:102030000C910D920421B4220E910F9202210722DD
:1020400007931091119200F0CDFF01F047F90221A2
:102050000291002203920F204FF4A05101900491AD
:102060004FF480520592052101A801F073F913B0D5
:1020700000BD38B586B001A8142100F04FFA002445
:10208000DFF85403DFF8545300940168CA4C41F060
:1020900010010160026802F0100200920022009913
:1020A0000092036843F004030360016801F0040137
:1020B000009100990092036843F080030360016877
:1020C00001F08001009100990092036843F0010340
:1020D0000360016801F001010091009900924FF442
:1020E0006041036843F008030360006800F00800E3
:1020F00000900098204600F057FF0022012128465A
:1021000000F052FF0C20002101900291039101A9DF
:10211000AC4800F067FE4FF46041019101220021BC
:1021200003910491029201A9204600F05BFE012177
:1021300001910291284600210391049101A900F028
:1021400051FE07B030BD10B5A54CA64B4FF066321E
:102150002DED028B94ED008BA34C51EC180BFFF787
:10216000DFFA07D80022A14BFFF7C2FA3CBF40F6C6
:102170002230206000F014F99D4BFFF7D1FA08D807
:102180004FF033329B4BFFF7B3FA3CBF40F68C2045
:10219000206000F0F3F8984BFFF7C2FA07D8974A8F
:1021A000974BFFF7A5FA3CBF40F6F610206000F011
:1021B000F2F8944BFFF7B4FA07D80022924BFFF7DE
:1021C00097FA3CBF4FF41660206000F0E0F88F4BA8
:1021D000FFF7A6FA08D84FF066328D4BFFF788FA62
:1021E0003CBF40F6CA00206000F0CCF8894BFFF7F6
:1021F00097FA07D8884A894BFFF77AFA3CBF40F62E
:102200003400206000F0CCF8854BFFF789FA08D83D
:102210004FF03332834BFFF76BFA3CBF40F29E70B6
:10222000206000F0ABF8804BFFF77AFA07D8734ACA
:102230007E4BFFF75DFA3CBF4FF4E160206000F099
:10224000AAF87B4BFFF76CFA07D80022794BFFF70F
:102250004FFA3CBF40F27260206000F098F8764B75
:10226000FFF75EFA08D84FF06632744BFFF740FA7A
:102270003CBF40F2DC50206000F084F8704BFFF768
:102280004FFA07D8644A6F4BFFF732FA3CBF40F26F
:102290004650206000F084F86B4BFFF741FA08D8F5
:1022A0004FF03332694BFFF723FA3CBF4FF496608F
:1022B000206000F063F8664BFFF732FA07D84F4A08
:1022C000644BFFF715FA3CBF40F21A40206000F063
:1022D00062F8614BFFF724FA07D800225F4BFFF743
:1022E00007FA3CBF4FF46170206000F050F85C4B7F
:1022F000FFF716FA08D84FF066325A4BFFF7F8F995
:102300003CBF40F2EE20206000F03CF8564BFFF757
:1023100007FA07D8404A554BFFF7EAF93CBF4FF49C
:102320001670206000F03CF8514BFFF7F9F908D81F
:102330004FF033324F4BFFF7DBF93CBF4FF4E17006
:10234000206000F01BF84C4BFFF7EAF907D82B4A46
:102350004A4BFFF7CDF93CBF4FF49670206000F078
:102360001AF8474BFFF7DCF905D80022454BFFF779
:10237000BFF938BF2260BDEC028B10BD51EC180BC9
:102380000022704751EC180B4FF03332704751EC7C
:10239000180B214A704751EC180B4FF0663270470A
:1023A00051EC180B154A704700683749884208BF3E
:1023B00001F0B8B8704700000008024010E000E0EB
:1023C00024400008001002400C02002000080040D9
:1023D000403802400070004030380240000C02409B
:1023E000C00300206666114034080040000012401F
:1023F0009999124033331340000013409A999999E8
:10240000999913406666134000001440CCCC1340E9
:102410006666144033331440CDCCCCCCCCCC1440C5
:10242000999914403333154000001540999915408F
:102430006666154000001640CCCC15406666164016
:1024400033331640CCCC164099991640333317409D
:102450000000174099991740666617400000184021
:10246000CCCC17406666184033331840CCCC1840AB
:10247000999918403333194000001940999919402F
:102480006666194000001A40001400400000000079
:102490000000000000000000000000002A2A446F35
:1024A0002050726F636573732A2A0A0053616D703E
:1024B0006C696E672073746F707065640A00000049
:1024C0004D6F746F722073746F707065640A0000D2
:1024D0002A2A456E642050726F63657373205374AB
:1024E0006172742A2A0A000080B50B48016841F421
:1024F00000710160026842F480620260016841F488
:1025000080710160032001F022F8002001F05EF8E4
:1025100000F0A8FB002002BD003C0240002201F0B8
:1025200093B8000038B5040001D1012032BD00F09D
:102530007AF818B900F073F800F06DFB0AE0006853
:10254000C16841F00101C160026842F0010202600D
:102550000020704702206870211D206800F007FAF3
:1025600001206870002032BD03D1416C41F400416C
:102570004164016841F001010160002010BD38B5DF
:10258000040001D1012032BD00F04DF818B900F06F
:1025900046F800F0B6FBDDE710B500F007F800F0F4
:1025A0000AF81CBFDFF890209042DDE704460122C4
:1025B000206800F080BA2068DFF8801088427047F9
:1025C0000446080006D0042909D008290CD00C299B
:1025D0000FD013E02068C26842F002020DE02068CC
:1025E000C26842F0040208E02068C26842F00802B3
:1025F00003E02068C26842F01002C2602068012235
:1026000000F059BA38B5040001D1012032BD00F004
:102610000AF818B900F003F800F040FB9AE700212F
:1026200029702046704704F138056878704710B566
:10263000FFF7C6FF20689CE700040140000001404E
:1026400010B50446206801698A0715D5C1688A0754
:1026500012D56FF00201016101222276806910F02B
:10266000030F204602D001F008F803E001F006F85D
:1026700000F087F800202076206801694A0715D508
:10268000C1684A0712D56FF0040101610222227667
:10269000806910F4407F204602D000F0EEFF03E096
:1026A00000F0ECFF00F06DF8002020762068016952
:1026B0000A0715D5C1680A0712D56FF00801016134
:1026C00004222276C06910F0030F204602D000F0E9
:1026D000D4FF03E000F0D2FF00F053F80020207692
:1026E00020680169CA0615D5C168CA0612D56FF0FF
:1026F0001001016108222276C06910F4407F204653
:1027000002D000F0BAFF03E000F0B8FF00F039F8A3
:102710000020207620680169CA0708D5C168CA0769
:1027200005D56FF0010101612046FFF73DFE2068ED
:1027300001690A0608D5C1680A0605D56FF080014F
:102740000161204600F09BFF206801694A0608D518
:10275000C1684A0605D56FF040010161204600F0CE
:102760008FFF206801698A060AD5C1688A0607D5E5
:102770006FF0200101612046BDE8104000F081BFEC
:1027800010BD204600F07EBFF8B500F0DBF801D1A7
:102790000220F2BD00F0DDF882B9EB686A682968B2
:1027A000306800F02CF93068816921F00C018161FA
:1027B00031688A69A86802438A615CE0042A10D102
:1027C000EB686A682968306800F00FFA3068816940
:1027D00021F4406100F0B2F8AA6841EA0221816167
:1027E00049E0082AE9686A682B6823D13768386AA3
:1027F00020F4807038621B0207F11C0003F4206390
:10280000D0F800C0D7F820E04FEA9C0C42EA8C02D6
:1028100061F3071202602EF4206003433B623068CC
:10282000C16921F00C01C1613168CA69A86802431D
:10283000CA6120E030681C301B03476827F48057CA
:10284000476003F420430768D0F804C027F44077BA
:1028500047EA022761F30F372CF4204107600B434E
:1028600043603068C16921F4406100F063F8AA68F0
:1028700041EA0221C16171E070B500F063F801D155
:10288000022070BD00F065F832B1042A17D0082A82
:1028900028D00C2A39D04AE03068294600F015F9D2
:1028A0003068816941F0080100F048F821F0040126
:1028B000816131688A69286902438A6137E030683A
:1028C000294600F0CBF83068816941F4006100F0DE
:1028D00035F821F4806100F031F82A6941EA0221DB
:1028E000816124E03068294600F017F93068C16939
:1028F00041F0080100F01EF821F00401C1613168C7
:10290000CA6928690243CA6111E03068294600F0AB
:102910002FF93068C16941F4006100F00BF821F42F
:10292000806100F007F82A6941EA0221C16100F0E4
:1029300018F870BDC1613068C16970478161306845
:1029400081697047064606F138040D462078012853
:1029500070470120207002216170704700F001F87B
:10296000F2BD012060700021217000207047F0B599
:10297000914C0568914B924E924FDFF84CC2A042A9
:1029800018BFB0F1804F07D0604518BFB84203D0E0
:10299000B04218BF98420DD14A6825F07005154322
:1029A000A04218BFB0F1804F17D060451CBFB8429D
:1029B000B04212D098421CBF844A90420DD0844E3F
:1029C000B0421CBF834A904207D0834EB0421FBF23
:1029D000824A9042824EB04203D1CA6825F44075C3
:1029E00015430560A0428D68C5620A68826212BF05
:1029F00098420969016301224261F0BD0000F0B50F
:102A0000046A6D4E6408640004628469056AA4085F
:102A1000A400B04218BFB0F1804F11D06A4EB0424E
:102A20001CBF684FB8420BD0654EB0421CBF634F0D
:102A3000B84205D0654EB0421CBF674FB84201D1C5
:102A4000224301E044F0010263F3071225F00A0576
:102A500001F00A01826129430162F0BD70B5026A8A
:102A6000554E22F010020262B042056A4368846942
:102A70000A6824F4E64444EA02248A6825F0200522
:102A800045EA02151CBF4D4A90420DD1CA684E69F5
:102A900025F0800545EA02158A6923F44063164350
:102AA00025F0400543EA86034360846149688163F9
:102AB000056270BD000010B5036A01248C40A34379
:102AC000036202FA01F1036A8CE0F0B5026A52086F
:102AD00052000262066A446885690B688A6825F0BC
:102AE00073051D4326F002061643334B98421CBF64
:102AF000324FB8420BD1CA684B6926F0080624F45D
:102B0000407416438A691C4326F00406144344604B
:102B10008561496841630662F0BD70B5026A22F4BE
:102B200080720262056A4368C4690A688E6824F08C
:102B30007304144325F400751F4A45EA06259042A4
:102B40001CBF1E4EB0420DD1CA684E6925F4006507
:102B500045EA02258A6923F44053164325F480652B
:102B600043EA06134360C4614968C163056270BDEE
:102B700070B5026A104E22F480520262B042046ABA
:102B80004268C3690D6823F4E64343EA05238D6870
:102B900024F4005444EA05341CBF084DA84204D173
:102BA0004D6922F4804242EA85124260C36149685D
:102BB0000164046270BD0000000001400004014097
:102BC000000C0040000800400004004000400140AC
:102BD000004401400048014000180040001C004033
:102BE000002000401943016210BD30B5046A24F092
:102BF0001004046209018469056A24F4407444EAFB
:102C0000022463F30F3425F0A00501F0A0018461D4
:102C10002943016230BD704730B500F138031A789E
:102C2000012A01D1022030BD01221A7002245C70F9
:102C30000268546824F070045460046865680A6887
:102C4000154365600268946824F08004946002680B
:102C500094684868044394600121597000201870FA
:102C600030BD000082B0002000900022444841683E
:102C700041F480414160416801F480410091009934
:102C80000092036843F080530360006800F08050B6
:102C900000900098072002B000F059BC10B586B033
:102CA00000F069F82468B4F1804F28D1002000902A
:102CB00000223448016941F001010161016901F01C
:102CC00001010091009900920121036843F0010382
:102CD00003600222006800F00100009000982A487A
:102CE00000F043F80121059101A900F07BF80022D2
:102CF00000211C2000F038FC1C2000F052FC06B023
:102D000010BD81B00068214988420BD100221C48C7
:102D10000092016841F004010160006800F00400C5
:102D20000090009801B0704738B586B000F023F8E5
:102D30002468164DAC4216D10020009002221148A2
:102D4000016841F0080101604FF48051006800F013
:102D50000800009000980E4800F007F80221059145
:102D600001A900F03FF807B030BD019102920021A7
:102D7000039104917047044601A81421FFF7CEBBCC
:102D80004038024030380240000002400008004055
:102D9000000C02400EB4C0B5024603A80021019009
:102DA000009101AB0121044878440C30FDF7FEF995
:102DB00006BC5DF810FB00BF0B13000038B50446DD
:102DC00000F062FC14F1010F054602D004480178BE
:102DD000641800F059FC401BA042FAD331BD00BF7B
:102DE000040000202DE9F84702460B4600247048F5
:102DF0000F2101271D68A74007EA0508B84540F0E4
:102E0000C7805D68022D18BF122D4FEA840911D1C9
:102E1000E50802EB850C09F01C05DCF820E0D3F88E
:102E200010A001FA05F62EEA06060AFA05F5354362
:102E3000CCF820504FEA440C0326156806FA0CF62D
:102E40006FEA060E1E7906F003060EEA050506FA7D
:102E50000CF6354315605D68012D18BF022D03D0B7
:102E6000112D18BF122D10D19568DE680EEA0505E8
:102E700006FA0CF635439560556825EA07075D6844
:102E8000C5F30015A5402F435760D7680EEA070524
:102E90009F6807FA0CF63543D5605D68EF0077D57B
:102EA0000025009509F00C090768424E47F4804759
:102EB000076001FA09FE056805F480450095009F4A
:102EC000A70856F8275025EA0E0E3B4DAA4208BF28
:102ED00000252CD0394DAA4208BF012527D0384DF6
:102EE000AA4208BF022522D0364DAA4208BF0325B8
:102EF0001DD0354DAA4208BF042518D0334DAA4233
:102F000008BF052513D0324DAA4208BF06250ED0B2
:102F1000304DAA4208BF072509D02F4DAA4208BF4D
:102F2000082504D02D4DAA420CBF09250A2505FA13
:102F300009F545EA0E0546F827506FEA0807284EBE
:102F4000356807EA050C5D68ED0348BF48EA0C0CDC
:102F5000C6F800C0756807EA050C5D68AD0348BF98
:102F600048EA0C0CC6F804C0B56807EA050C5D68B1
:102F7000ED0248BF48EA0C0CC6F808C0F56807EA3D
:102F8000050C5F68BD0248BF48EA0C0CC6F80CC0CF
:102F9000641C0F2C7FF62DAFBDE8F1870069084057
:102FA00018BF0120C0B2704702B90904816170479F
:102FB000443802400838014000000240000402404A
:102FC00000080240000C02400010024000140240C1
:102FD00000180240001C0240002002400024024071
:102FE000003C01402DE9F843040017D02078B74E8B
:102FF000C10745D5B06800F00C00042807D0B068C0
:1030000000F00C0008280BD17068410208D5306828
:10301000810335D56068002840F0BA80012053E173
:103020006068B0F5803F04D1306840F48030306093
:1030300011E0B0F5A02F306806D140F48020306058
:10304000316841F4803105E020F48030306031682F
:1030500021F480213160606868B100F015FB0546FD
:103060003068810300F1948000F00EFB401B65285E
:10307000F6D3032028E100F007FB05463068810302
:1030800040F1868000F000FB401B6528F6D3F0E796
:1030900000F0FAFA401B022840F2A780E9E7E06856
:1030A00070B10121396000F0EFFA05463068810700
:1030B00000F1CB8000F0E8FA401B0228F6D9D8E7EF
:1030C000386000F0E1FA05463168880763D500F002
:1030D000DBFA401B0228F7D9CBE7086000F0D4FAEE
:1030E0000546706F810775D500F0CEFA401B0228A7
:1030F000F7D9BEE70528306F06D140F004003067ED
:10310000306F40F0010005E0400840003067306F4C
:1031100020F00400306741F28938A06868B100F0FF
:10312000B3FA8146306F810700F19C8000F0ACFA61
:10313000A0EB09004045F5D39BE700F0A5FA8146D6
:10314000306F810740F18E8000F09EFAA0EB0900FD
:103150004045F5D38DE700F097FA401B022840F276
:10316000968086E700F090FA001B022840F2A780C4
:103170007FE70020386600F087FA04463068810156
:1031800040F1A18000F080FA001B0228F6D970E718
:1031900020784F4F81071BD5B06810F00C0F09D075
:1031A000B06800F00C0008287FF479AF7068410225
:1031B0003FF575AF3068810703D5E06801287FF4DB
:1031C0002DAF3168206921F0F80141EAC00131607A
:1031D000217808070DD560693E4900283FF47DAF8E
:1031E00001220A6000F050FA0546706F81077FF5F2
:1031F0004FAF207841073AD5306C0025C1000AD482
:1032000000950125316C41F080513164306C00F043
:10321000805000900098DFF8C080D8F80000C10509
:103220001BD4D8F8000040F48070C8F8000000F00B
:103230002BFA8146D8F80000C1050ED400F024FA1C
:10324000A0EB09000228F5D913E73068216920F0C6
:10325000F80040EAC1003060BAE7A06801287FF4B6
:1032600049AF4DE71DB1306C20F080503064A0694B
:1032700048B3B16801F00C0108293FF4CFAE022831
:103280007FF477AF0020386600F0FEF9054630681D
:1032900081013FF560AFE269206A616A0243A06A7A
:1032A000400842EA8112401E42EA0042E06A42EAD5
:1032B000006272600121396600F0E6F90446306868
:1032C00081017FF54FAF0020BDE8F2830038024056
:1032D00000004742800E474200700040F8B500F001
:1032E00027F8012100F01EF8316000F0CDF9074603
:1032F0002868C1030CD400F0C7F9C01BA042F7D363
:103300000320F2BD00F0C0F9801BA04205D3F7E70F
:103310000120706000F0B8F9064628688103F1D5F5
:103320000020F2BD006800F08050009000987047C7
:103330000020009040F2E9340448054E0168024D37
:1033400041F08051016070470470004040380240F5
:1033500040000E422DE9F04104000F4677D0534E55
:10336000306800F00F00B84202D200F072F86ED15F
:1033700020684F4D810712D5400703D5A96841F455
:10338000E051A9602078010703D5A86840F46040A7
:10339000A860A968A06821F0F0010143A960217824
:1033A000C8074CD56068012802D129688A0305E066
:1033B000022818BF032803D129688A0103D446E0F4
:1033C00029688A0743D5A968890840EA8100A8606E
:1033D00000F05AF98046A868616800F00C00B0EB74
:1033E000810F2CD000F050F9A0EB080041F2893198
:1033F0008842F0D3032020E02078410705D5AA6851
:10340000E06822F4E0520243AA602178080706D55A
:10341000A968206921F4604141EAC001A96000F077
:1034200051F8AA682349244BC2F30312895CC840AF
:103430001860002000F0CAF80020BDE8F081306874
:1034400000F00F008742D7D200F003F8D4D001205B
:10345000F3E73770316801F00F01B9427047164841
:10346000164A006813681649C3F38222FFE7895C95
:10347000C840704710B50F220260104A136803F06D
:1034800003034360146804F0F0048460136803F4D9
:10349000E053C3601268D20802F4E05202610348AC
:1034A000026802F00F020A6010BD0000003C0240FA
:1034B000003802405C3F000810000020083802403D
:1034C0000041000830B5144C606800F00C0004287E
:1034D00002D0082802D01DE0104830BD22682068C4
:1034E0000023410202F03F0204D525680B49C5F3D1
:1034F000881003E020680A49C0F38810A1FB00018E
:10350000FDF768FF2168C1F30141491C4900B0FB88
:10351000F1F030BD024830BD0438024000127A009C
:103520000024F4000248416802788A18426070471B
:10353000040000200901020006D51F4A00F00F0018
:10354000104400F8041C70471C4B195470471C4B66
:1035500019684FF6FF020002114000F4E0600843D2
:10356000184908431860704738B5154B1C68C4F3F8
:103570000223C3F10704052C28BF04241D1D072DB9
:1035800034BF0023DB1E012505FA04F4641E21402C
:10359000994005FA03F35B1E1A401143BDE834401D
:1035A000C8E7012200F01F01074BFFE78A404009EE
:1035B00043F820207047000018ED00E000E400E030
:1035C0000CED00E00000FA0500E100E018B501464E
:1035D00087B000223720FFF7C7FF3720FFF7E1FF52
:1035E00000200090144C1548016841F02001016052
:1035F00001A9006800F020000090009802A8FFF7E1
:1036000039FFFFF72CFF0E49216040F2E7324000FE
:103610000C49E260B0FBF1F0401E606000222261C4
:10362000A2602046FEF77EFF18B92046FEF787FF0E
:1036300000E0012008B010BD7803002040380240AF
:103640000014004040420F0000B500BF1300964632
:103650009446103928BFA0E80C50FAD85FEA417CA4
:1036600028BF0CC048BF40F8042BC90728BF20F86A
:10367000022B48BF00F8012B00BD70477047704710
:10368000704770477047000001484068704700BFAE
:103690000400002010B50446AFF30080204600F07F
:1036A00005F80446AFF30080204610BD70B500F168
:1036B0000F06F608F600B04240D2082E04D20826C3
:1036C00002E0083000F047F8DFF804512C682100D0
:1036D00005D1002007E00268B24221D2011D08682E
:1036E0000028F8D12068291D0A68824222D0136878
:1036F000B34238BF111DF7D312E093190B60801B42
:1037000054685C600B6818601660096800291DBF6A
:1037100048680028081D0020286002F1080070BDDC
:1037200061B10A681068A0F10803B342E5D250689D
:103730000860EAE700F04EF80028C2D1002070BD12
:1037400010B5040006D0AFF30080204600F003F867
:10375000AFF3008010BD002800D1704770B4A0F115
:1037600008021368072B2BD913F0070F28D1184C28
:10377000616809B18A4202D25160626013E0486810
:1037800000B3904238BF0146F9D31BE0964203D103
:103790001B180B600A4606E0486810B113449842B3
:1037A0000ED350604A60506850B11368D5188542F6
:1037B00006D1002626600168CB181360406850606F
:1037C00070BC704708680E18B242DFD270BC7047F8
:1037D000D80300200749086808B100207047064850
:1037E000C008C00008600549C908C900091A01607D
:1037F000704700BFE8030020F7070020F009002011
:103800007047FEE7FEE7FEE7FEE770477047704748
:1038100038B52D4D2D4C286848B90122012120468C
:10382000FFF7C2FB01222A6033A0FFF7B3FA286832
:1038300001280CD1002201212046FFF7B5FB002012
:10384000C5F80000BDE832402CA0FFF7A3BA31BD97
:1038500070B51F4C1F48266800681F4D012E05D10A
:10386000FEF7EEF9C5E90001002024E0FEF7E8F9D3
:1038700041EC100B194880ED000BD5E9002351EC09
:10388000100BFEF733F800224FF08043FDF726FEC1
:103890000022134BFEF79CF841EC100B1148124923
:1038A00080ED000B002053EC102BFEF791F80F4A2F
:1038B000C2E9000101202060BDE870400C48FEF71D
:1038C000BFBE0C48FEF7BCBEE0030020000C024067
:1038D0000000002034000040D0030020C803002076
:1038E00000805640B803002000408F40C0030020F5
:1038F0000C0200207803002068690A006C6C0A0042
:103900002DE9F04107468846387810F0030F164637
:103910001D4633D0384600F099F878BBB8F1000F57
:103920001CBFD8E900018619012D2ED13888C104A9
:1039300015D5396A07F14402384600F0A3F83A6B0E
:10394000044602B93A69F968384600F09BF8361B1C
:10395000341A7A69F968384600F094F8261A1EB9C4
:103960004DB916F1010F09D097F903002A463146E7
:1039700000F08EF8064616F1010F09D12320AFF3AF
:1039800000804FF0FF30BDE8F081022DE8D1EBE779
:10399000388810F4405F0ED07868F860386178613C
:1039A000B86107F144017868F861396207F13000C5
:1039B000002178623963B8F1000F05D0D8E902011F
:1039C00007F13402C2E900013B884CF6FF60034076
:1039D0003B800020BDE8F08170B50546AFF3008064
:1039E0002888810415D56E680024EA6895F90300DB
:1039F0003146914212D2521A00F070F810F1010FC4
:103A00001CBF00283618F0D10FE04DF6FF700140C2
:103A100029802846AFF30080002070BD00220021DD
:103A200000F05CF810F1010F00D101246868E86033
:103A3000A861E861002C2988E7D041F40071298051
:103A40002846AFF300804FF0FF3070BDF8B5A0B945
:103A5000AFF3008000250A4E08244FF0FF3730688E
:103A600020B1FFF7B9FF002848BF3D46361D641E50
:103A7000F5D1AFF300802846F2BDBDE8F240ABE7D8
:103A80006C010020914234BF511A00210846704752
:103A90003EB504000D00012A02D100F0C1F807E094
:103AA000022A07D100940020019069460C20ABBE89
:103AB0002D1801E0002A0CD10094019569460A20D6
:103AC000ABBE002805D100222100280000F085F8B7
:103AD00001E00020C04303B030BD0000F8B50D0088
:103AE000164611D1012818BF10F1010F0AD129493A
:103AF0000A6D3AB100230B65012000F0B3F810F114
:103B0000010F44D00020F2BD012803D0BDE8F840E9
:103B100000F0A8B8502E13D91E490A6D3AB1002002
:103B20000865012000F09EF810F1010F2FD03246F9
:103B30002946012000F096F810F1010F14D126E07B
:103B40003446144F84B13A6D0020B918502A0DD272
:103B500015F8013B01F8013B0A2B08BF0120521C5C
:103B6000641EF3D13A6503E03046F2BD3A6524B9EC
:103B70000028F9D0386D0028E4D03A6D002038656F
:103B80003946012000F06EF810F1010FDAD14FF044
:103B9000FF30F2BD8402002010B4314A00211346E8
:103BA0001C6884421EBF491C9C6884421EBF491C7D
:103BB0001C69844209D09C69491C844205D0491C77
:103BC00020331029ECD310BC7047002342F8313069
:103BD00002EBC1014B6010BC704770B4204C002355
:103BE00025462E688E421EBF5B1CAE688E421EBFED
:103BF0005B1C2E698E4209D0AE695B1C8E4205D0DB
:103C00005B1C2035102BECD370BC7047054604EBD1
:103C1000C303012A04BF59684D195D6070BC704729
:103C200010B40F4A002113461C6884421EBF491C71
:103C30009C6884421EBF491C1C6984420AD09C694E
:103C4000491C844206D0491C20331029ECD310BCF7
:103C50000020704702EBC100406810BC70470000B4
:103C60008C01002080B5002901D1002002BD01286F
:103C700001D0022802D100F005F802BD00F02AF8B8
:103C800002BD000070B40B00002111480068C001A3
:103C90000FD4080070BC70475D782D0225439C78D6
:103CA00026042E43DC78240634431B1D0460121FB7
:103CB000091D002AEDD0E02000060468002CFAD08F
:103CC0001C78042AE8D204705B1C491C521EF0E7E1
:103CD000FCED00E018B583B00300140000930191DF
:103CE000029469460520ABBE01221900201AFFF795
:103CF00074FF04B010BD10B50446E068A1698842A5
:103D000051D3218849F202030B40022B08D008044A
:103D10004CBF4FF400704FF48440014321803BE0DE
:103D200001F4C042B2F5C04F06D1A168884203D366
:103D30002046FFF78BFE78BB208810F4406F02BF4F
:103D4000606804F14401884217D14FF40070FFF716
:103D5000A1FC606030B904F144006060E060401C88
:103D6000A0600AE0218841F040012180E0606061AC
:103D700000F500726068A260E0616068A16820617F
:103D8000A161207841070AD502220021204600F0D7
:103D90000CF810F1010F02D14FF0FF3010BD208858
:103DA00040F4C0402080002010BD70B504460D4690
:103DB0001646AFF3008033462A4600212046FFF71F
:103DC0009FFD05462046AFF30080284670BD0000E9
:103DD00018B401780A0627D51F4A136800218342C8
:103DE00003D1002442F821401BE0536801218342A3
:103DF0001EBF022193688342F3D0D368032183421C
:103E00001EBF042113698342EBD05369052183420D
:103E10001EBF0621936983421EBF0721D3698342D7
:103E2000DFD012BC00F01AB8002101804FF0FF3241
:103E300000F14401C270C1604161C16100F14403FD
:103E400000F1440200F130014360026182610262CC
:103E5000416211BC704700006C010020FFF770BC8C
:103E600038B504000ED0207810F0030F03D094F979
:103E70000300002809D5AFF300802046FFF7A8FF14
:103E8000AFF300804FF0FF3032BD2046FFF7DEFD7C
:103E90000546AFF300802078410644BF6068FFF715
:103EA000DDFF0020606094F90300022804D900F0CF
:103EB00016F808B14FF0FF35E06B48B100F01BF881
:103EC00008B14FF0FF35E06BFFF7C8FF0020E0635B
:103ED0002046FFF77DFFAFF30080284632BD1CB5BA
:103EE0000200009269460220ABBE04001000FFF7FA
:103EF00053FE200016BDE0B50090FDF7BBF9019020
:103F000069460E20ABBE03B000BD00000E4801683C
:103F100041F47001016000220C49086840F0010082
:103F200008608A600B680A480A4A03400B604A60CE
:103F300000200B68084A23F480230B60C8604FF010
:103F4000006111607047000088ED00E00038024019
:103F5000FFFFF6FE1030002408ED00E00000000036
:103F600000000000010203040607080938B50C46EA
:103F7000C5B22046AFF30080E068A169884204D34F
:103F80002046FFF7B8FE00280FD4E068401CE06030
:103F900000F8015D2088010503D440050BD50A2DEA
:103FA00009D12046FFF752FD28B12046AFF300802B
:103FB0004FF0FF3032BD2046AFF30080284632BDBF
:103FC00038B50D4D0824286800281CBF017811F071
:103FD000030F05D090F90310002958BFFFF740FFE9
:103FE0002D1D641EEFD1BDE83840002200214FF0A6
:103FF000FF30FFF773BD00BF6C01002010B507490B
:1040000079441831064C7C44163404E00A68081DD3
:10401000114488470146A142F8D110BD500000006C
:104020006C0000002A2A3D3D3D20537461727420CB
:104030005369676E616C2054726967676572656465
:10404000203D3D3D2A2A0A004EF68851CEF200015D
:10405000086840F470000860BFF34F8FBFF36F8FA4
:104060004FF00070E1EE100A704700008FD1FFFFA3
:10407000600200008C0100200000000077D0FFFFEC
:10408000F0010000200100000000002000F00DF809
:10409000002801D0FFF7B2FFAFF300800020AFF39C
:1040A0000080FDF79FFE00F002F80120704700F04D
:1040B00001B800000746FFF783FF3846FDF788FE8A
:1040C000FBE738B504460D46284600F005F8A8423F
:1040D00018BF0024204632BD0149FFF747BF00BF8B
:1040E000DC00002001488047014800470D3F0008E0
:1040F000F5400008AFF30080FFF7A6FFFFF7C6FF0B
:10410000000000000102030400002E004300FFF73E
:10411000FEBFFFF7FEBFFFF7FEBFFFF7FEBFFFF7D3
:10412000FEBFFFF7FEBFFFF7FEBFFFF7FEBFFFF7C3
:10413000FEBFFFF7FEBFFFF7FEBFFFF7FEBFFFF7B3
:10414000FEBFFFF7FEBFFFF7FEBFFFF7FEBFFFF7A3
:10415000FEBFFFF7FEBFFFF7FEBFFFF7FEBFFFF793
:10416000FEBFFFF7FEBFFFF7FEBFFFF7FEBFFFF783
:10417000FEBFFFF7FEBFFFF7FEBFFFF7FEBFFFF773
:10418000FEBFFFF7FEBFFFF7FEBFFFF7FEBFFFF763
:10419000FEBFFFF7FEBFFFF7FEBFFFF7FEBFFFF753
:1041A000FEBFFFF7FEBFFFF7FEBFFFF7FEBFFFF743
:1041B000FEBFFFF7FEBFFFF7FEBFFFF7FEBFFFF733
:1041C000FEBFFFF7FEBFFFF7FEBFFFF7FEBFFFF723
:1041D000FEBFFFF7FEBFFFF7FEBFFFF7FEBFFFF713
:1041E000FEBFFFF7FEBFFFF7FEBFFFF7FEBFFFF703
:1041F000FEBFFFF7FEBFFFF7FEBFFFF7FEBFFFF7F3
:10420000FEBFFFF7FEBFFFF7FEBFFFF7FEBFFFF7E2
:10421000FEBFFFF7FEBFFFF7FEBFFFF7FEBFFFF7D2
:10422000FEBFFFF7FEBFFFF7FEBFFFF7FEBFFFF7C2
:10423000FEBFFFF7FEBFFFF7FEBFFFF7FEBFFFF7B2
:10424000FEBFFFF7FEBFFFF7FEBFFFF7FEBFFFF7A2
:10425000FEBFFFF7FEBFFFF7FEBFFFF7FEBFFFF792
:10426000FEBFFFF7FEBFFFF7FEBFFFF7FEBF000078
:10427000400401000000010001221008F00507249D
:10428000F400084100080452FF01F2000A14100172
:1042900000000C0C214CF00316140000200001203B
:1042A00002BD1200082C43AB123C21011003010493
:1042B0000000D84412D90452D804211BA108F212DC
:1042C000C464100702040101280300207804522866
:1042D0000421346108F00412200100200C01484040
:1042E00003080202D80240210853D802885108125C
:1042F0006844F212544812947312DC04F206242C1F
:04000005080040F5BA
:00000001FF
